{
  "contractName": "Data",
  "abi": [
    {
      "constant": false,
      "inputs": [],
      "name": "unpause",
      "outputs": [],
      "payable": false,
      "stateMutability": "nonpayable",
      "type": "function"
    },
    {
      "constant": true,
      "inputs": [
        {
          "name": "",
          "type": "uint256"
        }
      ],
      "name": "allSocieties",
      "outputs": [
        {
          "name": "",
          "type": "address"
        }
      ],
      "payable": false,
      "stateMutability": "view",
      "type": "function"
    },
    {
      "constant": true,
      "inputs": [],
      "name": "paused",
      "outputs": [
        {
          "name": "",
          "type": "bool"
        }
      ],
      "payable": false,
      "stateMutability": "view",
      "type": "function"
    },
    {
      "constant": false,
      "inputs": [],
      "name": "renounceOwnership",
      "outputs": [],
      "payable": false,
      "stateMutability": "nonpayable",
      "type": "function"
    },
    {
      "constant": true,
      "inputs": [],
      "name": "numberOfUsers",
      "outputs": [
        {
          "name": "",
          "type": "uint256"
        }
      ],
      "payable": false,
      "stateMutability": "view",
      "type": "function"
    },
    {
      "constant": false,
      "inputs": [],
      "name": "pause",
      "outputs": [],
      "payable": false,
      "stateMutability": "nonpayable",
      "type": "function"
    },
    {
      "constant": true,
      "inputs": [],
      "name": "owner",
      "outputs": [
        {
          "name": "",
          "type": "address"
        }
      ],
      "payable": false,
      "stateMutability": "view",
      "type": "function"
    },
    {
      "constant": true,
      "inputs": [
        {
          "name": "",
          "type": "uint256"
        }
      ],
      "name": "allUsers",
      "outputs": [
        {
          "name": "wallet",
          "type": "address"
        },
        {
          "name": "registered",
          "type": "bool"
        },
        {
          "name": "name",
          "type": "string"
        },
        {
          "name": "memberships",
          "type": "uint256"
        }
      ],
      "payable": false,
      "stateMutability": "view",
      "type": "function"
    },
    {
      "constant": true,
      "inputs": [
        {
          "name": "",
          "type": "address"
        }
      ],
      "name": "users",
      "outputs": [
        {
          "name": "wallet",
          "type": "address"
        },
        {
          "name": "registered",
          "type": "bool"
        },
        {
          "name": "name",
          "type": "string"
        },
        {
          "name": "memberships",
          "type": "uint256"
        }
      ],
      "payable": false,
      "stateMutability": "view",
      "type": "function"
    },
    {
      "constant": true,
      "inputs": [],
      "name": "numberOfSocieties",
      "outputs": [
        {
          "name": "",
          "type": "uint256"
        }
      ],
      "payable": false,
      "stateMutability": "view",
      "type": "function"
    },
    {
      "constant": true,
      "inputs": [],
      "name": "totalDonations",
      "outputs": [
        {
          "name": "",
          "type": "uint256"
        }
      ],
      "payable": false,
      "stateMutability": "view",
      "type": "function"
    },
    {
      "constant": false,
      "inputs": [
        {
          "name": "_newOwner",
          "type": "address"
        }
      ],
      "name": "transferOwnership",
      "outputs": [],
      "payable": false,
      "stateMutability": "nonpayable",
      "type": "function"
    },
    {
      "anonymous": false,
      "inputs": [],
      "name": "NewUserAdded",
      "type": "event"
    },
    {
      "anonymous": false,
      "inputs": [],
      "name": "NewSocietyAdded",
      "type": "event"
    },
    {
      "anonymous": false,
      "inputs": [],
      "name": "Pause",
      "type": "event"
    },
    {
      "anonymous": false,
      "inputs": [],
      "name": "Unpause",
      "type": "event"
    },
    {
      "anonymous": false,
      "inputs": [
        {
          "indexed": true,
          "name": "previousOwner",
          "type": "address"
        }
      ],
      "name": "OwnershipRenounced",
      "type": "event"
    },
    {
      "anonymous": false,
      "inputs": [
        {
          "indexed": true,
          "name": "previousOwner",
          "type": "address"
        },
        {
          "indexed": true,
          "name": "newOwner",
          "type": "address"
        }
      ],
      "name": "OwnershipTransferred",
      "type": "event"
    },
    {
      "constant": true,
      "inputs": [
        {
          "name": "_user",
          "type": "address"
        }
      ],
      "name": "userGetName",
      "outputs": [
        {
          "name": "_name",
          "type": "string"
        }
      ],
      "payable": false,
      "stateMutability": "view",
      "type": "function"
    },
    {
      "constant": true,
      "inputs": [
        {
          "name": "_user",
          "type": "address"
        }
      ],
      "name": "userIsRegistered",
      "outputs": [
        {
          "name": "_registered",
          "type": "bool"
        }
      ],
      "payable": false,
      "stateMutability": "view",
      "type": "function"
    },
    {
      "constant": true,
      "inputs": [
        {
          "name": "_user",
          "type": "address"
        }
      ],
      "name": "userExists",
      "outputs": [
        {
          "name": "_exists",
          "type": "bool"
        }
      ],
      "payable": false,
      "stateMutability": "view",
      "type": "function"
    },
    {
      "constant": true,
      "inputs": [
        {
          "name": "_user",
          "type": "address"
        }
      ],
      "name": "userGetMemberships",
      "outputs": [
        {
          "name": "",
          "type": "address[]"
        }
      ],
      "payable": false,
      "stateMutability": "view",
      "type": "function"
    },
    {
      "constant": true,
      "inputs": [
        {
          "name": "_society",
          "type": "address"
        }
      ],
      "name": "societyGetMembers",
      "outputs": [
        {
          "name": "",
          "type": "address[]"
        }
      ],
      "payable": false,
      "stateMutability": "view",
      "type": "function"
    },
    {
      "constant": true,
      "inputs": [
        {
          "name": "_location",
          "type": "string"
        }
      ],
      "name": "getSocietiesInLocation",
      "outputs": [
        {
          "name": "_inLocation",
          "type": "address[]"
        }
      ],
      "payable": false,
      "stateMutability": "view",
      "type": "function"
    },
    {
      "constant": false,
      "inputs": [
        {
          "name": "_name",
          "type": "string"
        },
        {
          "name": "_location",
          "type": "string"
        },
        {
          "name": "_socialLink",
          "type": "string"
        }
      ],
      "name": "createSociety",
      "outputs": [
        {
          "name": "_society",
          "type": "address"
        }
      ],
      "payable": false,
      "stateMutability": "nonpayable",
      "type": "function"
    },
    {
      "constant": false,
      "inputs": [
        {
          "name": "_society",
          "type": "address"
        }
      ],
      "name": "joinSociety",
      "outputs": [
        {
          "name": "",
          "type": "bool"
        }
      ],
      "payable": false,
      "stateMutability": "nonpayable",
      "type": "function"
    },
    {
      "constant": false,
      "inputs": [
        {
          "name": "_society",
          "type": "address"
        }
      ],
      "name": "leaveSociety",
      "outputs": [
        {
          "name": "",
          "type": "bool"
        }
      ],
      "payable": false,
      "stateMutability": "nonpayable",
      "type": "function"
    },
    {
      "constant": false,
      "inputs": [
        {
          "name": "_society",
          "type": "address"
        }
      ],
      "name": "makeDonation",
      "outputs": [
        {
          "name": "",
          "type": "bool"
        }
      ],
      "payable": true,
      "stateMutability": "payable",
      "type": "function"
    },
    {
      "constant": false,
      "inputs": [
        {
          "name": "_name",
          "type": "string"
        }
      ],
      "name": "addNewUser",
      "outputs": [
        {
          "name": "",
          "type": "bool"
        }
      ],
      "payable": false,
      "stateMutability": "nonpayable",
      "type": "function"
    }
  ],
  "bytecode": "0x608060405260008060146101000a81548160ff021916908315150217905550336000806101000a81548173ffffffffffffffffffffffffffffffffffffffff021916908373ffffffffffffffffffffffffffffffffffffffff16021790555061378e8061006d6000396000f3006080604052600436106200014b576000357c0100000000000000000000000000000000000000000000000000000000900463ffffffff168063019d8556146200015057806302ac60db14620001ae5780630e666e4914620001fe5780630ff55823146200025c5780632ea9b0b114620002f95780633f4ba83a14620003965780635573407e14620003b05780635ab48d2e14620004735780635c975abb14620004e3578063715018a6146200051557806375ce46a7146200052f5780637d863fed146200055d5780638456cb5914620005e15780638da5cb5b14620005fb5780639b7b50301462000655578063a2bdedf4146200078d578063a87430ba146200087e578063b424bfcd1462000985578063b71338ca14620009b3578063de2ed8931462000a11578063f2fde38b1462000a3f578063f6f197151462000a85578063fb834f061462000ae3575b600080fd5b3480156200015d57600080fd5b5062000194600480360381019080803573ffffffffffffffffffffffffffffffffffffffff16906020019092919050505062000ba5565b604051808215151515815260200191505060405180910390f35b620001e4600480360381019080803573ffffffffffffffffffffffffffffffffffffffff16906020019092919050505062000df8565b604051808215151515815260200191505060405180910390f35b3480156200020b57600080fd5b5062000242600480360381019080803573ffffffffffffffffffffffffffffffffffffffff16906020019092919050505062000f31565b604051808215151515815260200191505060405180910390f35b3480156200026957600080fd5b50620002a0600480360381019080803573ffffffffffffffffffffffffffffffffffffffff16906020019092919050505062000f8a565b6040518080602001828103825283818151815260200191508051906020019060200280838360005b83811015620002e5578082015181840152602081019050620002c8565b505050509050019250505060405180910390f35b3480156200030657600080fd5b506200033d600480360381019080803573ffffffffffffffffffffffffffffffffffffffff169060200190929190505050620011b8565b6040518080602001828103825283818151815260200191508051906020019060200280838360005b838110156200038257808201518184015260208101905062000365565b505050509050019250505060405180910390f35b348015620003a357600080fd5b50620003ae62001422565b005b348015620003bd57600080fd5b506200041a600480360381019080803590602001908201803590602001908080601f0160208091040260200160405190810160405280939291908181526020018383808284378201915050505050509192919290505050620014e2565b6040518080602001828103825283818151815260200191508051906020019060200280838360005b838110156200045f57808201518184015260208101905062000442565b505050509050019250505060405180910390f35b3480156200048057600080fd5b50620004a160048036038101908080359060200190929190505050620015df565b604051808273ffffffffffffffffffffffffffffffffffffffff1673ffffffffffffffffffffffffffffffffffffffff16815260200191505060405180910390f35b348015620004f057600080fd5b50620004fb6200161e565b604051808215151515815260200191505060405180910390f35b3480156200052257600080fd5b506200052d62001631565b005b3480156200053c57600080fd5b506200054762001734565b6040518082815260200191505060405180910390f35b3480156200056a57600080fd5b50620005c7600480360381019080803590602001908201803590602001908080601f01602080910402602001604051908101604052809392919081815260200183838082843782019150505050505091929192905050506200173a565b604051808215151515815260200191505060405180910390f35b348015620005ee57600080fd5b50620005f9620019ee565b005b3480156200060857600080fd5b506200061362001ab0565b604051808273ffffffffffffffffffffffffffffffffffffffff1673ffffffffffffffffffffffffffffffffffffffff16815260200191505060405180910390f35b3480156200066257600080fd5b506200074b600480360381019080803590602001908201803590602001908080601f0160208091040260200160405190810160405280939291908181526020018383808284378201915050505050509192919290803590602001908201803590602001908080601f0160208091040260200160405190810160405280939291908181526020018383808284378201915050505050509192919290803590602001908201803590602001908080601f016020809104026020016040519081016040528093929190818152602001838380828437820191505050505050919291929050505062001ad5565b604051808273ffffffffffffffffffffffffffffffffffffffff1673ffffffffffffffffffffffffffffffffffffffff16815260200191505060405180910390f35b3480156200079a57600080fd5b50620007bb6004803603810190808035906020019092919050505062001f37565b604051808573ffffffffffffffffffffffffffffffffffffffff1673ffffffffffffffffffffffffffffffffffffffff1681526020018415151515815260200180602001838152602001828103825284818151815260200191508051906020019080838360005b838110156200083f57808201518184015260208101905062000822565b50505050905090810190601f1680156200086d5780820380516001836020036101000a031916815260200191505b509550505050505060405180910390f35b3480156200088b57600080fd5b50620008c2600480360381019080803573ffffffffffffffffffffffffffffffffffffffff16906020019092919050505062002040565b604051808573ffffffffffffffffffffffffffffffffffffffff1673ffffffffffffffffffffffffffffffffffffffff1681526020018415151515815260200180602001838152602001828103825284818151815260200191508051906020019080838360005b838110156200094657808201518184015260208101905062000929565b50505050905090810190601f168015620009745780820380516001836020036101000a031916815260200191505b509550505050505060405180910390f35b3480156200099257600080fd5b506200099d62002139565b6040518082815260200191505060405180910390f35b348015620009c057600080fd5b50620009f7600480360381019080803573ffffffffffffffffffffffffffffffffffffffff1690602001909291905050506200213f565b604051808215151515815260200191505060405180910390f35b34801562000a1e57600080fd5b5062000a2962002391565b6040518082815260200191505060405180910390f35b34801562000a4c57600080fd5b5062000a83600480360381019080803573ffffffffffffffffffffffffffffffffffffffff16906020019092919050505062002397565b005b34801562000a9257600080fd5b5062000ac9600480360381019080803573ffffffffffffffffffffffffffffffffffffffff16906020019092919050505062002401565b604051808215151515815260200191505060405180910390f35b34801562000af057600080fd5b5062000b27600480360381019080803573ffffffffffffffffffffffffffffffffffffffff1690602001909291905050506200245a565b6040518080602001828103825283818151815260200191508051906020019080838360005b8381101562000b6957808201518184015260208101905062000b4c565b50505050905090810190601f16801562000b975780820380516001836020036101000a031916815260200191505b509250505060405180910390f35b600080600060149054906101000a900460ff1615151562000bc557600080fd5b62000bd03362000f31565b151562000bdc57600080fd5b6000600160003373ffffffffffffffffffffffffffffffffffffffff1673ffffffffffffffffffffffffffffffffffffffff16815260200190815260200160002060020160008573ffffffffffffffffffffffffffffffffffffffff1673ffffffffffffffffffffffffffffffffffffffff16815260200190815260200160002060006101000a81548160ff02191690831515021790555062000ccb60018060003373ffffffffffffffffffffffffffffffffffffffff1673ffffffffffffffffffffffffffffffffffffffff168152602001908152602001600020600301546200254290919063ffffffff16565b600160003373ffffffffffffffffffffffffffffffffffffffff1673ffffffffffffffffffffffffffffffffffffffff168152602001908152602001600020600301819055508290508073ffffffffffffffffffffffffffffffffffffffff1663bedf77a6336040518263ffffffff167c0100000000000000000000000000000000000000000000000000000000028152600401808273ffffffffffffffffffffffffffffffffffffffff1673ffffffffffffffffffffffffffffffffffffffff168152602001915050602060405180830381600087803b15801562000db057600080fd5b505af115801562000dc5573d6000803e3d6000fd5b505050506040513d602081101562000ddc57600080fd5b8101908080519060200190929190505050506001915050919050565b60008060149054906101000a900460ff1615151562000e1657600080fd5b62000e213362000f31565b801562000eb75750600160003373ffffffffffffffffffffffffffffffffffffffff1673ffffffffffffffffffffffffffffffffffffffff16815260200190815260200160002060020160008373ffffffffffffffffffffffffffffffffffffffff1673ffffffffffffffffffffffffffffffffffffffff16815260200190815260200160002060009054906101000a900460ff165b151562000ec357600080fd5b8173ffffffffffffffffffffffffffffffffffffffff166108fc349081150290604051600060405180830381858888f1935050505015801562000f0a573d6000803e3d6000fd5b5062000f22346007546200255c90919063ffffffff16565b60078190555060019050919050565b6000600160008373ffffffffffffffffffffffffffffffffffffffff1673ffffffffffffffffffffffffffffffffffffffff16815260200190815260200160002060000160149054906101000a900460ff169050919050565b606060008060606000808694508473ffffffffffffffffffffffffffffffffffffffff1663b88fe6a36040518163ffffffff167c0100000000000000000000000000000000000000000000000000000000028152600401602060405180830381600087803b15801562000ffc57600080fd5b505af115801562001011573d6000803e3d6000fd5b505050506040513d60208110156200102857600080fd5b81019080805190602001909291905050509350836040519080825280602002602001820160405280156200106b5781602001602082028038833980820191505090505b50925060009150600090505b600380549050811015620011ab576003818154811015156200109557fe5b906000526020600020906004020160020160008873ffffffffffffffffffffffffffffffffffffffff1673ffffffffffffffffffffffffffffffffffffffff16815260200190815260200160002060009054906101000a900460ff16156200119d576003818154811015156200110757fe5b906000526020600020906004020160000160009054906101000a900473ffffffffffffffffffffffffffffffffffffffff1683838151811015156200114857fe5b9060200190602002019073ffffffffffffffffffffffffffffffffffffffff16908173ffffffffffffffffffffffffffffffffffffffff16815250506200119a6001836200255c90919063ffffffff16565b91505b808060010191505062001077565b8295505050505050919050565b606060006060600080600160008773ffffffffffffffffffffffffffffffffffffffff1673ffffffffffffffffffffffffffffffffffffffff16815260200190815260200160002060030154935083604051908082528060200260200182016040528015620012365781602001602082028038833980820191505090505b50925060009150600090505b60048054905081101562001416576004818154811015156200126057fe5b9060005260206000200160009054906101000a900473ffffffffffffffffffffffffffffffffffffffff1673ffffffffffffffffffffffffffffffffffffffff166337a40cd0876040518263ffffffff167c0100000000000000000000000000000000000000000000000000000000028152600401808273ffffffffffffffffffffffffffffffffffffffff1673ffffffffffffffffffffffffffffffffffffffff168152602001915050602060405180830381600087803b1580156200132657600080fd5b505af11580156200133b573d6000803e3d6000fd5b505050506040513d60208110156200135257600080fd5b81019080805190602001909291905050501562001408576004818154811015156200137957fe5b9060005260206000200160009054906101000a900473ffffffffffffffffffffffffffffffffffffffff168383815181101515620013b357fe5b9060200190602002019073ffffffffffffffffffffffffffffffffffffffff16908173ffffffffffffffffffffffffffffffffffffffff1681525050620014056001836200255c90919063ffffffff16565b91505b808060010191505062001242565b82945050505050919050565b6000809054906101000a900473ffffffffffffffffffffffffffffffffffffffff1673ffffffffffffffffffffffffffffffffffffffff163373ffffffffffffffffffffffffffffffffffffffff161415156200147e57600080fd5b600060149054906101000a900460ff1615156200149a57600080fd5b60008060146101000a81548160ff0219169083151502179055507f7805862f689e2f13df9f062ff482ad3ad112aca9e0847911ed832e158c525b3360405160405180910390a1565b60606002826040518082805190602001908083835b6020831015156200151e5780518252602082019150602081019050602083039250620014f7565b6001836020036101000a0380198251168184511680821785525050505050509050019150509081526020016040518091039020805480602002602001604051908101604052809291908181526020018280548015620015d357602002820191906000526020600020905b8160009054906101000a900473ffffffffffffffffffffffffffffffffffffffff1673ffffffffffffffffffffffffffffffffffffffff168152602001906001019080831162001588575b50505050509050919050565b600481815481101515620015ef57fe5b906000526020600020016000915054906101000a900473ffffffffffffffffffffffffffffffffffffffff1681565b600060149054906101000a900460ff1681565b6000809054906101000a900473ffffffffffffffffffffffffffffffffffffffff1673ffffffffffffffffffffffffffffffffffffffff163373ffffffffffffffffffffffffffffffffffffffff161415156200168d57600080fd5b6000809054906101000a900473ffffffffffffffffffffffffffffffffffffffff1673ffffffffffffffffffffffffffffffffffffffff167ff8df31144d9c2f0f6b59d69b8b98abd5459d07f2742c4df920b25aae33c6482060405160405180910390a260008060006101000a81548173ffffffffffffffffffffffffffffffffffffffff021916908373ffffffffffffffffffffffffffffffffffffffff160217905550565b60065481565b60008060149054906101000a900460ff161515156200175857600080fd5b620017633362000f31565b1515156200177057600080fd5b81600160003373ffffffffffffffffffffffffffffffffffffffff1673ffffffffffffffffffffffffffffffffffffffff1681526020019081526020016000206001019080519060200190620017c89291906200270c565b5033600160003373ffffffffffffffffffffffffffffffffffffffff1673ffffffffffffffffffffffffffffffffffffffff16815260200190815260200160002060000160006101000a81548173ffffffffffffffffffffffffffffffffffffffff021916908373ffffffffffffffffffffffffffffffffffffffff16021790555060018060003373ffffffffffffffffffffffffffffffffffffffff1673ffffffffffffffffffffffffffffffffffffffff16815260200190815260200160002060000160146101000a81548160ff0219169083151502179055506003600160003373ffffffffffffffffffffffffffffffffffffffff1673ffffffffffffffffffffffffffffffffffffffff168152602001908152602001600020908060018154018082558091505090600182039060005260206000209060040201600090919290919091506000820160009054906101000a900473ffffffffffffffffffffffffffffffffffffffff168160000160006101000a81548173ffffffffffffffffffffffffffffffffffffffff021916908373ffffffffffffffffffffffffffffffffffffffff1602179055506000820160149054906101000a900460ff168160000160146101000a81548160ff02191690831515021790555060018201816001019080546001816001161561010002031660029004620019cd92919062002793565b5060038201548160030155505050620019e562002579565b60019050919050565b6000809054906101000a900473ffffffffffffffffffffffffffffffffffffffff1673ffffffffffffffffffffffffffffffffffffffff163373ffffffffffffffffffffffffffffffffffffffff1614151562001a4a57600080fd5b600060149054906101000a900460ff1615151562001a6757600080fd5b6001600060146101000a81548160ff0219169083151502179055507f6985a02210a168e66602d3235cb6db0e70f92b3ba4d376a33c0f3d9434bff62560405160405180910390a1565b6000809054906101000a900473ffffffffffffffffffffffffffffffffffffffff1681565b60008060149054906101000a900460ff1615151562001af357600080fd5b62001afe3362000f31565b151562001b0a57600080fd5b8383338462001b1862002821565b8080602001806020018573ffffffffffffffffffffffffffffffffffffffff1673ffffffffffffffffffffffffffffffffffffffff16815260200180602001848103845288818151815260200191508051906020019080838360005b8381101562001b9157808201518184015260208101905062001b74565b50505050905090810190601f16801562001bbf5780820380516001836020036101000a031916815260200191505b50848103835287818151815260200191508051906020019080838360005b8381101562001bfa57808201518184015260208101905062001bdd565b50505050905090810190601f16801562001c285780820380516001836020036101000a031916815260200191505b50848103825285818151815260200191508051906020019080838360005b8381101562001c6357808201518184015260208101905062001c46565b50505050905090810190601f16801562001c915780820380516001836020036101000a031916815260200191505b50975050505050505050604051809103906000f08015801562001cb8573d6000803e3d6000fd5b50905060048190806001815401808255809150509060018203906000526020600020016000909192909190916101000a81548173ffffffffffffffffffffffffffffffffffffffff021916908373ffffffffffffffffffffffffffffffffffffffff160217905550506002836040518082805190602001908083835b60208310151562001d5b578051825260208201915060208101905060208303925062001d34565b6001836020036101000a03801982511681845116808217855250505050505090500191505090815260200160405180910390208190806001815401808255809150509060018203906000526020600020016000909192909190916101000a81548173ffffffffffffffffffffffffffffffffffffffff021916908373ffffffffffffffffffffffffffffffffffffffff1602179055505060018060003373ffffffffffffffffffffffffffffffffffffffff1673ffffffffffffffffffffffffffffffffffffffff16815260200190815260200160002060020160008373ffffffffffffffffffffffffffffffffffffffff1673ffffffffffffffffffffffffffffffffffffffff16815260200190815260200160002060006101000a81548160ff02191690831515021790555062001ee060018060003373ffffffffffffffffffffffffffffffffffffffff1673ffffffffffffffffffffffffffffffffffffffff168152602001908152602001600020600301546200255c90919063ffffffff16565b600160003373ffffffffffffffffffffffffffffffffffffffff1673ffffffffffffffffffffffffffffffffffffffff1681526020019081526020016000206003018190555062001f30620025c5565b9392505050565b60038181548110151562001f4757fe5b90600052602060002090600402016000915090508060000160009054906101000a900473ffffffffffffffffffffffffffffffffffffffff16908060000160149054906101000a900460ff1690806001018054600181600116156101000203166002900480601f016020809104026020016040519081016040528092919081815260200182805460018160011615610100020316600290048015620020305780601f10620020045761010080835404028352916020019162002030565b820191906000526020600020905b8154815290600101906020018083116200201257829003601f168201915b5050505050908060030154905084565b60016020528060005260406000206000915090508060000160009054906101000a900473ffffffffffffffffffffffffffffffffffffffff16908060000160149054906101000a900460ff1690806001018054600181600116156101000203166002900480601f016020809104026020016040519081016040528092919081815260200182805460018160011615610100020316600290048015620021295780601f10620020fd5761010080835404028352916020019162002129565b820191906000526020600020905b8154815290600101906020018083116200210b57829003601f168201915b5050505050908060030154905084565b60055481565b600080600060149054906101000a900460ff161515156200215f57600080fd5b6200216a3362000f31565b15156200217657600080fd5b60018060003373ffffffffffffffffffffffffffffffffffffffff1673ffffffffffffffffffffffffffffffffffffffff16815260200190815260200160002060020160008573ffffffffffffffffffffffffffffffffffffffff1673ffffffffffffffffffffffffffffffffffffffff16815260200190815260200160002060006101000a81548160ff0219169083151502179055506200226460018060003373ffffffffffffffffffffffffffffffffffffffff1673ffffffffffffffffffffffffffffffffffffffff168152602001908152602001600020600301546200255c90919063ffffffff16565b600160003373ffffffffffffffffffffffffffffffffffffffff1673ffffffffffffffffffffffffffffffffffffffff168152602001908152602001600020600301819055508290508073ffffffffffffffffffffffffffffffffffffffff166328ffe6c8336040518263ffffffff167c0100000000000000000000000000000000000000000000000000000000028152600401808273ffffffffffffffffffffffffffffffffffffffff1673ffffffffffffffffffffffffffffffffffffffff168152602001915050602060405180830381600087803b1580156200234957600080fd5b505af11580156200235e573d6000803e3d6000fd5b505050506040513d60208110156200237557600080fd5b8101908080519060200190929190505050506001915050919050565b60075481565b6000809054906101000a900473ffffffffffffffffffffffffffffffffffffffff1673ffffffffffffffffffffffffffffffffffffffff163373ffffffffffffffffffffffffffffffffffffffff16141515620023f357600080fd5b620023fe8162002611565b50565b6000600160008373ffffffffffffffffffffffffffffffffffffffff1673ffffffffffffffffffffffffffffffffffffffff16815260200190815260200160002060000160149054906101000a900460ff169050919050565b6060600160008373ffffffffffffffffffffffffffffffffffffffff1673ffffffffffffffffffffffffffffffffffffffff1681526020019081526020016000206001018054600181600116156101000203166002900480601f016020809104026020016040519081016040528092919081815260200182805460018160011615610100020316600290048015620025365780601f106200250a5761010080835404028352916020019162002536565b820191906000526020600020905b8154815290600101906020018083116200251857829003601f168201915b50505050509050919050565b60008282111515156200255157fe5b818303905092915050565b600081830190508281101515156200257057fe5b80905092915050565b6200259160016006546200255c90919063ffffffff16565b6006819055507f4d9c4499a565ccdc1a7aa108bf18d1dee863d2239725b7eb0da54bb9bcea307460405160405180910390a1565b620025dd60016005546200255c90919063ffffffff16565b6005819055507f1d62ea3c3f29421f9aa067d7868f31040506978e3f3adbaced42ea5ab44f07e360405160405180910390a1565b600073ffffffffffffffffffffffffffffffffffffffff168173ffffffffffffffffffffffffffffffffffffffff16141515156200264e57600080fd5b8073ffffffffffffffffffffffffffffffffffffffff166000809054906101000a900473ffffffffffffffffffffffffffffffffffffffff1673ffffffffffffffffffffffffffffffffffffffff167f8be0079c531659141344cd1fd0a4f28419497f9722a3daafe3b4186f6b6457e060405160405180910390a3806000806101000a81548173ffffffffffffffffffffffffffffffffffffffff021916908373ffffffffffffffffffffffffffffffffffffffff16021790555050565b828054600181600116156101000203166002900490600052602060002090601f016020900481019282601f106200274f57805160ff191683800117855562002780565b8280016001018555821562002780579182015b828111156200277f57825182559160200191906001019062002762565b5b5090506200278f919062002832565b5090565b828054600181600116156101000203166002900490600052602060002090601f016020900481019282601f10620027ce57805485556200280e565b828001600101855582156200280e57600052602060002091601f016020900482015b828111156200280d578254825591600101919060010190620027f0565b5b5090506200281d919062002832565b5090565b604051610f08806200285b83390190565b6200285791905b808211156200285357600081600090555060010162002839565b5090565b905600608060405234801561001057600080fd5b5060405162000f0838038062000f08833981018060405281019080805182019291906020018051820192919060200180519060200190929190805182019291905050508360009080519060200190610069929190610142565b508260019080519060200190610080929190610142565b5081600260006101000a81548173ffffffffffffffffffffffffffffffffffffffff021916908373ffffffffffffffffffffffffffffffffffffffff16021790555080600390805190602001906100d8929190610142565b5060016004819055506001600560008473ffffffffffffffffffffffffffffffffffffffff1673ffffffffffffffffffffffffffffffffffffffff16815260200190815260200160002060006101000a81548160ff021916908315150217905550505050506101e7565b828054600181600116156101000203166002900490600052602060002090601f016020900481019282601f1061018357805160ff19168380011785556101b1565b828001600101855582156101b1579182015b828111156101b0578251825591602001919060010190610195565b5b5090506101be91906101c2565b5090565b6101e491905b808211156101e05760008160009055506001016101c8565b5090565b90565b610d1180620001f76000396000f3006080604052600436106100c5576000357c0100000000000000000000000000000000000000000000000000000000900463ffffffff168063039cf786146100c757806306fdde03146101575780632569fb10146101e757806328ffe6c81461023a57806337a40cd0146102955780633ccfd60b146102f0578063516f279e1461031f578063827bfbdf146103af578063a230c52414610402578063b88fe6a31461045d578063bedf77a614610488578063c47f0027146104e3578063f851a44014610536575b005b3480156100d357600080fd5b506100dc61058d565b6040518080602001828103825283818151815260200191508051906020019080838360005b8381101561011c578082015181840152602081019050610101565b50505050905090810190601f1680156101495780820380516001836020036101000a031916815260200191505b509250505060405180910390f35b34801561016357600080fd5b5061016c61062b565b6040518080602001828103825283818151815260200191508051906020019080838360005b838110156101ac578082015181840152602081019050610191565b50505050905090810190601f1680156101d95780820380516001836020036101000a031916815260200191505b509250505060405180910390f35b3480156101f357600080fd5b506102206004803603810190808035906020019082018035906020019190919293919293905050506106c9565b604051808215151515815260200191505060405180910390f35b34801561024657600080fd5b5061027b600480360381019080803573ffffffffffffffffffffffffffffffffffffffff169060200190929190505050610743565b604051808215151515815260200191505060405180910390f35b3480156102a157600080fd5b506102d6600480360381019080803573ffffffffffffffffffffffffffffffffffffffff16906020019092919050505061081b565b604051808215151515815260200191505060405180910390f35b3480156102fc57600080fd5b50610305610871565b604051808215151515815260200191505060405180910390f35b34801561032b57600080fd5b50610334610956565b6040518080602001828103825283818151815260200191508051906020019080838360005b83811015610374578082015181840152602081019050610359565b50505050905090810190601f1680156103a15780820380516001836020036101000a031916815260200191505b509250505060405180910390f35b3480156103bb57600080fd5b506103e86004803603810190808035906020019082018035906020019190919293919293905050506109f4565b604051808215151515815260200191505060405180910390f35b34801561040e57600080fd5b50610443600480360381019080803573ffffffffffffffffffffffffffffffffffffffff169060200190929190505050610a6e565b604051808215151515815260200191505060405180910390f35b34801561046957600080fd5b50610472610a8e565b6040518082815260200191505060405180910390f35b34801561049457600080fd5b506104c9600480360381019080803573ffffffffffffffffffffffffffffffffffffffff169060200190929190505050610a94565b604051808215151515815260200191505060405180910390f35b3480156104ef57600080fd5b5061051c600480360381019080803590602001908201803590602001919091929391929390505050610b6b565b604051808215151515815260200191505060405180910390f35b34801561054257600080fd5b5061054b610be5565b604051808273ffffffffffffffffffffffffffffffffffffffff1673ffffffffffffffffffffffffffffffffffffffff16815260200191505060405180910390f35b60038054600181600116156101000203166002900480601f0160208091040260200160405190810160405280929190818152602001828054600181600116156101000203166002900480156106235780601f106105f857610100808354040283529160200191610623565b820191906000526020600020905b81548152906001019060200180831161060657829003601f168201915b505050505081565b60008054600181600116156101000203166002900480601f0160208091040260200160405190810160405280929190818152602001828054600181600116156101000203166002900480156106c15780601f10610696576101008083540402835291602001916106c1565b820191906000526020600020905b8154815290600101906020018083116106a457829003601f168201915b505050505081565b6000600260009054906101000a900473ffffffffffffffffffffffffffffffffffffffff1673ffffffffffffffffffffffffffffffffffffffff163373ffffffffffffffffffffffffffffffffffffffff1614151561072757600080fd5b828260039190610738929190610c40565b506001905092915050565b6000600560008373ffffffffffffffffffffffffffffffffffffffff1673ffffffffffffffffffffffffffffffffffffffff16815260200190815260200160002060009054906101000a900460ff1615151561079e57600080fd5b6107b46001600454610c0b90919063ffffffff16565b6004819055506001600560008473ffffffffffffffffffffffffffffffffffffffff1673ffffffffffffffffffffffffffffffffffffffff16815260200190815260200160002060006101000a81548160ff02191690831515021790555060019050919050565b6000600560008373ffffffffffffffffffffffffffffffffffffffff1673ffffffffffffffffffffffffffffffffffffffff16815260200190815260200160002060009054906101000a900460ff169050919050565b6000600260009054906101000a900473ffffffffffffffffffffffffffffffffffffffff1673ffffffffffffffffffffffffffffffffffffffff163373ffffffffffffffffffffffffffffffffffffffff161415156108cf57600080fd5b600260009054906101000a900473ffffffffffffffffffffffffffffffffffffffff1673ffffffffffffffffffffffffffffffffffffffff166108fc3073ffffffffffffffffffffffffffffffffffffffff16319081150290604051600060405180830381858888f1935050505015801561094e573d6000803e3d6000fd5b506001905090565b60018054600181600116156101000203166002900480601f0160208091040260200160405190810160405280929190818152602001828054600181600116156101000203166002900480156109ec5780601f106109c1576101008083540402835291602001916109ec565b820191906000526020600020905b8154815290600101906020018083116109cf57829003601f168201915b505050505081565b6000600260009054906101000a900473ffffffffffffffffffffffffffffffffffffffff1673ffffffffffffffffffffffffffffffffffffffff163373ffffffffffffffffffffffffffffffffffffffff16141515610a5257600080fd5b828260019190610a63929190610c40565b506001905092915050565b60056020528060005260406000206000915054906101000a900460ff1681565b60045481565b6000600560008373ffffffffffffffffffffffffffffffffffffffff1673ffffffffffffffffffffffffffffffffffffffff16815260200190815260200160002060009054906101000a900460ff161515610aee57600080fd5b610b046001600454610c2790919063ffffffff16565b6004819055506000600560008473ffffffffffffffffffffffffffffffffffffffff1673ffffffffffffffffffffffffffffffffffffffff16815260200190815260200160002060006101000a81548160ff02191690831515021790555060019050919050565b6000600260009054906101000a900473ffffffffffffffffffffffffffffffffffffffff1673ffffffffffffffffffffffffffffffffffffffff163373ffffffffffffffffffffffffffffffffffffffff16141515610bc957600080fd5b828260009190610bda929190610c40565b506001905092915050565b600260009054906101000a900473ffffffffffffffffffffffffffffffffffffffff1681565b60008183019050828110151515610c1e57fe5b80905092915050565b6000828211151515610c3557fe5b818303905092915050565b828054600181600116156101000203166002900490600052602060002090601f016020900481019282601f10610c8157803560ff1916838001178555610caf565b82800160010185558215610caf579182015b82811115610cae578235825591602001919060010190610c93565b5b509050610cbc9190610cc0565b5090565b610ce291905b80821115610cde576000816000905550600101610cc6565b5090565b905600a165627a7a723058200b09c11b7796ce9a42c3d74ea4747369a66a4414573b5c2d798825bbbc3e1abf0029a165627a7a72305820bb4857ee893a7e856a4ba6adf73d9f3c52f2de1f8eef36e755ca2eec078ab7200029",
  "source": "pragma solidity 0.4.24;\n\nimport \"openzeppelin-solidity/contracts/math/SafeMath.sol\";\nimport 'openzeppelin-solidity/contracts/lifecycle/Pausable.sol';\nimport \"./Society.sol\";\n\n/** @title Societhy Data */\ncontract Data is Pausable {\n\n    using SafeMath for uint;\n\n    struct User {\n        address wallet;\n        bool registered;\n        string name;\n        mapping(address => bool) memberOf;\n        uint memberships;\n    }\n\n    mapping(address => User) public users;\n    mapping(string => Society[]) societiesInLocation;\n    User[] public allUsers;\n    Society[] public allSocieties;\n\n    uint public numberOfSocieties;\n    uint public numberOfUsers;\n    uint public totalDonations;\n\n    event NewUserAdded();\n    event NewSocietyAdded();\n\n    /*\n    Getters\n    */\n\n    /**\n     * @dev Getter for user name\n     * @param  _user Address to identify user\n     * @return _name Identified user's name\n     */\n    function userGetName(address _user) public view returns (string _name) {\n        _name = users[_user].name;\n    }\n\n    /**\n     * @dev Getter for user registration status\n     * @param  _user Address to identify user\n     * @return _registered Identified user's registration status\n     */\n    function userIsRegistered(address _user) public view returns (bool _registered) {\n        _registered = users[_user].registered;\n    }\n\n    /**\n     * @dev Getter for user existence\n     * @param  _user Address to identify user\n     * @return _exists Identified user's existence\n     */\n    function userExists(address _user) public view returns (bool _exists) {\n        _exists = users[_user].registered;\n    }\n\n    /**\n     * @dev Getter for user membership status\n     * @param  _user Address to identify user\n     * @param  _society Address to identify society\n     * @return _isMemberOf Identified user's membership status of identified society\n     */\n    function userIsMemberOf(address _user, address _society) private view returns (bool _isMemberOf) {\n        _isMemberOf = users[_user].memberOf[_society];\n    }\n\n    /**\n     * @dev Getter for list of societies user is member of\n     * @param  _user Address to identify user\n     * @return {address[]} List of addresses identifying societies the identified user is member of\n     */\n    function userGetMemberships(address _user) public view returns (address[]) {\n        uint len = users[_user].memberships;\n        address[] memory memberships = new address[](len);\n        uint pointer = 0;\n        for (uint i = 0; i < allSocieties.length; i++) {\n            if (allSocieties[i].userIsMember(_user)) {\n                memberships[pointer] = address(allSocieties[i]);\n                pointer = pointer.add(1);\n            }\n        }\n        return memberships;\n    }\n\n    /**\n     * @dev Getter for list of members that belong to a society\n     * @param  _society Address to identify society\n     * @return {address[]} List of addresses identifying users the identified society has\n     */\n    function societyGetMembers(address _society) public view returns (address[]) {\n        Society s = Society(_society);\n        uint len = s.memberships();\n        address[] memory memberships = new address[](len);\n        uint pointer = 0;\n        for (uint i = 0; i < allUsers.length; i++) {\n            if (allUsers[i].memberOf[_society]) {\n                memberships[pointer] = allUsers[i].wallet;\n                pointer = pointer.add(1);\n            }\n        }\n        return memberships;\n    }\n\n    /**\n     * @dev Getter for list of societies that are in an identified location\n     * @param  _location String to identify location\n     * @return _inLocation List of addresses identifying societies in the identified location\n     */\n    function getSocietiesInLocation(string _location) public view returns (Society[] _inLocation) {\n        _inLocation = societiesInLocation[_location];\n    }\n\n    /*\n    Society utilities\n    */\n\n    /**\n     * @dev Creates a new society\n     * @param  _name String for new society name\n     * @param  _location String for new society location\n     * @param  _name String for new society's social link\n     * @return _society New society contract address\n     */\n    function createSociety(string _name, string _location, string _socialLink) public whenNotPaused returns (Society _society) {\n        require(userExists(msg.sender));\n        _society = new Society(_name, _location, msg.sender, _socialLink);\n        allSocieties.push(_society);\n        societiesInLocation[_location].push(_society);\n        users[msg.sender].memberOf[_society] = true;\n        users[msg.sender].memberships = users[msg.sender].memberships.add(1);\n        newSocietyAdded();\n    }\n\n    /**\n     * @dev Allows user to join an existing society\n     * @param  _society Address to identify society\n     * @return {bool} Success\n     */\n    function joinSociety(address _society) public whenNotPaused returns (bool) {\n        require(userExists(msg.sender));\n        users[msg.sender].memberOf[_society] = true;\n        users[msg.sender].memberships = users[msg.sender].memberships.add(1);\n        Society s = Society(_society);\n        s.join(msg.sender);\n        return true;\n    }\n\n    /**\n     * @dev Allows user to leave an existing society\n     * @param  _society Address to identify society\n     * @return {bool} Success\n     */\n    function leaveSociety(address _society) whenNotPaused public returns (bool) {\n        require(userExists(msg.sender));\n        users[msg.sender].memberOf[_society] = false;\n        users[msg.sender].memberships = users[msg.sender].memberships.sub(1);\n        Society s = Society(_society);\n        s.leave(msg.sender);\n        return true;\n    }\n\n    /**\n     * @dev Allows user to donate to an existing society they're a member of\n     * @param  _society Address to identify society\n     * @return {bool} Success\n     */\n    function makeDonation(address _society) public whenNotPaused payable returns (bool) {\n        require(userExists(msg.sender) && users[msg.sender].memberOf[_society]);\n        _society.transfer(msg.value);\n        totalDonations = totalDonations.add(msg.value);\n        return true;\n    }\n\n    /*\n    User utilities\n    */\n\n    /**\n     * @dev Registers a new user\n     * @param _name String for new user name\n     * @return {bool} Success\n     */\n    function addNewUser(string _name) public whenNotPaused returns (bool) {\n        require(!userExists(msg.sender));\n        users[msg.sender].name = _name;\n        users[msg.sender].wallet = msg.sender;\n        users[msg.sender].registered = true;\n        allUsers.push(users[msg.sender]);\n        newUserAdded();\n        return true;\n    }\n\n    /*\n    Other utilities\n    */\n\n    /**\n     * @dev Logs a new society being added\n     */\n    function newSocietyAdded() private {\n        numberOfSocieties = numberOfSocieties.add(1);\n        emit NewSocietyAdded();\n    }\n\n    /**\n     * @dev Logs a new user being registered\n     */\n    function newUserAdded() private {\n        numberOfUsers = numberOfUsers.add(1);\n        emit NewUserAdded();\n    }\n\n}\n",
  "sourcePath": "/Users/jackleslie/Desktop/Consensys/ConsenSys-2018DP-Final-Project/contracts/Data.sol",
  "compiler": {
    "name": "solc",
    "version": "0.4.24+commit.e67f0147.Emscripten.clang"
  },
  "schemaVersion": "2.0.1",
  "updatedAt": "2018-08-12T20:05:15.388Z"
}