{
  "contractName": "SociethyData",
  "abi": [
    {
      "constant": true,
      "inputs": [],
      "name": "numberOfEvents",
      "outputs": [
        {
          "name": "",
          "type": "uint256"
        }
      ],
      "payable": false,
      "stateMutability": "view",
      "type": "function"
    },
    {
      "constant": true,
      "inputs": [],
      "name": "numberOfUsers",
      "outputs": [
        {
          "name": "",
          "type": "uint256"
        }
      ],
      "payable": false,
      "stateMutability": "view",
      "type": "function"
    },
    {
      "constant": true,
      "inputs": [
        {
          "name": "",
          "type": "address"
        }
      ],
      "name": "users",
      "outputs": [
        {
          "name": "name",
          "type": "string"
        },
        {
          "name": "totalDonations",
          "type": "uint256"
        }
      ],
      "payable": false,
      "stateMutability": "view",
      "type": "function"
    },
    {
      "constant": true,
      "inputs": [],
      "name": "numberOfSocieties",
      "outputs": [
        {
          "name": "",
          "type": "uint256"
        }
      ],
      "payable": false,
      "stateMutability": "view",
      "type": "function"
    },
    {
      "anonymous": false,
      "inputs": [],
      "name": "NewUserAdded",
      "type": "event"
    },
    {
      "anonymous": false,
      "inputs": [],
      "name": "NewSocietyAdded",
      "type": "event"
    },
    {
      "anonymous": false,
      "inputs": [],
      "name": "NewEventAdded",
      "type": "event"
    },
    {
      "constant": true,
      "inputs": [
        {
          "name": "_society",
          "type": "string"
        }
      ],
      "name": "societyGetName",
      "outputs": [
        {
          "name": "",
          "type": "string"
        }
      ],
      "payable": false,
      "stateMutability": "view",
      "type": "function"
    },
    {
      "constant": true,
      "inputs": [
        {
          "name": "_society",
          "type": "string"
        }
      ],
      "name": "societyGetLocation",
      "outputs": [
        {
          "name": "",
          "type": "string"
        }
      ],
      "payable": false,
      "stateMutability": "view",
      "type": "function"
    },
    {
      "constant": true,
      "inputs": [
        {
          "name": "_society",
          "type": "string"
        }
      ],
      "name": "societyGetAdmin",
      "outputs": [
        {
          "name": "",
          "type": "address"
        }
      ],
      "payable": false,
      "stateMutability": "view",
      "type": "function"
    },
    {
      "constant": true,
      "inputs": [
        {
          "name": "_society",
          "type": "string"
        }
      ],
      "name": "societyGetNewAdmin",
      "outputs": [
        {
          "name": "",
          "type": "address"
        }
      ],
      "payable": false,
      "stateMutability": "view",
      "type": "function"
    },
    {
      "constant": true,
      "inputs": [
        {
          "name": "_society",
          "type": "string"
        }
      ],
      "name": "societyGetLogoHash",
      "outputs": [
        {
          "name": "",
          "type": "bytes32"
        }
      ],
      "payable": false,
      "stateMutability": "view",
      "type": "function"
    },
    {
      "constant": true,
      "inputs": [
        {
          "name": "_user",
          "type": "address"
        }
      ],
      "name": "userGetName",
      "outputs": [
        {
          "name": "",
          "type": "string"
        }
      ],
      "payable": false,
      "stateMutability": "view",
      "type": "function"
    },
    {
      "constant": true,
      "inputs": [
        {
          "name": "_user",
          "type": "address"
        }
      ],
      "name": "userGetTotalDonations",
      "outputs": [
        {
          "name": "",
          "type": "uint256"
        }
      ],
      "payable": false,
      "stateMutability": "view",
      "type": "function"
    },
    {
      "constant": true,
      "inputs": [
        {
          "name": "_event",
          "type": "string"
        }
      ],
      "name": "eventGetName",
      "outputs": [
        {
          "name": "",
          "type": "string"
        }
      ],
      "payable": false,
      "stateMutability": "view",
      "type": "function"
    },
    {
      "constant": true,
      "inputs": [
        {
          "name": "_event",
          "type": "string"
        }
      ],
      "name": "eventGetDescription",
      "outputs": [
        {
          "name": "",
          "type": "string"
        }
      ],
      "payable": false,
      "stateMutability": "view",
      "type": "function"
    },
    {
      "constant": true,
      "inputs": [
        {
          "name": "_event",
          "type": "string"
        }
      ],
      "name": "eventGetPlace",
      "outputs": [
        {
          "name": "",
          "type": "string"
        }
      ],
      "payable": false,
      "stateMutability": "view",
      "type": "function"
    },
    {
      "constant": true,
      "inputs": [
        {
          "name": "_event",
          "type": "string"
        }
      ],
      "name": "eventGetTime",
      "outputs": [
        {
          "name": "",
          "type": "string"
        }
      ],
      "payable": false,
      "stateMutability": "view",
      "type": "function"
    },
    {
      "constant": true,
      "inputs": [
        {
          "name": "_event",
          "type": "string"
        }
      ],
      "name": "eventGetDate",
      "outputs": [
        {
          "name": "",
          "type": "string"
        }
      ],
      "payable": false,
      "stateMutability": "view",
      "type": "function"
    },
    {
      "constant": true,
      "inputs": [
        {
          "name": "_event",
          "type": "string"
        }
      ],
      "name": "eventGetOrganiser",
      "outputs": [
        {
          "name": "",
          "type": "string"
        }
      ],
      "payable": false,
      "stateMutability": "view",
      "type": "function"
    },
    {
      "constant": true,
      "inputs": [
        {
          "name": "_event",
          "type": "string"
        }
      ],
      "name": "eventGetAttendees",
      "outputs": [
        {
          "name": "",
          "type": "address[]"
        }
      ],
      "payable": false,
      "stateMutability": "view",
      "type": "function"
    },
    {
      "constant": true,
      "inputs": [
        {
          "name": "_society",
          "type": "string"
        }
      ],
      "name": "societyExists",
      "outputs": [
        {
          "name": "",
          "type": "bool"
        }
      ],
      "payable": false,
      "stateMutability": "view",
      "type": "function"
    },
    {
      "constant": false,
      "inputs": [
        {
          "name": "_society",
          "type": "string"
        },
        {
          "name": "_name",
          "type": "string"
        },
        {
          "name": "_location",
          "type": "string"
        },
        {
          "name": "_logoHash",
          "type": "bytes32"
        }
      ],
      "name": "addNewSociety",
      "outputs": [
        {
          "name": "",
          "type": "bool"
        }
      ],
      "payable": false,
      "stateMutability": "nonpayable",
      "type": "function"
    },
    {
      "constant": false,
      "inputs": [
        {
          "name": "_society",
          "type": "string"
        },
        {
          "name": "_newAdmin",
          "type": "address"
        }
      ],
      "name": "proposeNewAdmin",
      "outputs": [
        {
          "name": "",
          "type": "bool"
        }
      ],
      "payable": false,
      "stateMutability": "nonpayable",
      "type": "function"
    },
    {
      "constant": false,
      "inputs": [
        {
          "name": "_society",
          "type": "string"
        }
      ],
      "name": "acceptNewAdmin",
      "outputs": [
        {
          "name": "",
          "type": "bool"
        }
      ],
      "payable": false,
      "stateMutability": "nonpayable",
      "type": "function"
    },
    {
      "constant": true,
      "inputs": [
        {
          "name": "_user",
          "type": "address"
        }
      ],
      "name": "userExists",
      "outputs": [
        {
          "name": "",
          "type": "bool"
        }
      ],
      "payable": false,
      "stateMutability": "view",
      "type": "function"
    },
    {
      "constant": false,
      "inputs": [
        {
          "name": "_name",
          "type": "string"
        }
      ],
      "name": "addNewUser",
      "outputs": [
        {
          "name": "",
          "type": "bool"
        }
      ],
      "payable": false,
      "stateMutability": "nonpayable",
      "type": "function"
    },
    {
      "constant": false,
      "inputs": [
        {
          "name": "_society",
          "type": "string"
        }
      ],
      "name": "makeMeMemberOf",
      "outputs": [
        {
          "name": "",
          "type": "bool"
        }
      ],
      "payable": false,
      "stateMutability": "nonpayable",
      "type": "function"
    },
    {
      "constant": true,
      "inputs": [
        {
          "name": "_event",
          "type": "string"
        }
      ],
      "name": "eventExists",
      "outputs": [
        {
          "name": "",
          "type": "bool"
        }
      ],
      "payable": false,
      "stateMutability": "view",
      "type": "function"
    }
  ],
  "bytecode": "0x608060405234801561001057600080fd5b50612837806100206000396000f300608060405260043610610154576000357c0100000000000000000000000000000000000000000000000000000000900463ffffffff16806309b383b7146101595780630e666e49146101fa5780631f1a4dbf1461025557806322cf07d8146103705780634a50c4a21461042e5780634d9f567a146104595780634e6799f01461053b5780635b8ec4f81461061d57806366309836146106c657806373fe6883146107a857806375ce46a7146107ff5780637d863fed1461082a5780639722ef8e146108ab5780639ec754ef1461098d578063a87430ba14610a6f578063a88b033a14610b32578063ac2cd4a514610bb3578063b424bfcd14610c5c578063ba8d2a9714610c87578063c08a611014610d69578063da7fee8614610e4b578063dfa5dfa514610ecc578063ecb8e93414610f51578063f98b3f4b14610fd2578063fb834f06146110b4578063fd5186a014611170575b600080fd5b34801561016557600080fd5b506101e0600480360381019080803590602001908201803590602001908080601f0160208091040260200160405190810160405280939291908181526020018383808284378201915050505050509192919290803573ffffffffffffffffffffffffffffffffffffffff1690602001909291905050506111f1565b604051808215151515815260200191505060405180910390f35b34801561020657600080fd5b5061023b600480360381019080803573ffffffffffffffffffffffffffffffffffffffff16906020019092919050505061124a565b604051808215151515815260200191505060405180910390f35b34801561026157600080fd5b50610356600480360381019080803590602001908201803590602001908080601f0160208091040260200160405190810160405280939291908181526020018383808284378201915050505050509192919290803590602001908201803590602001908080601f0160208091040260200160405190810160405280939291908181526020018383808284378201915050505050509192919290803590602001908201803590602001908080601f01602080910402602001604051908101604052809392919081815260200183838082843782019150505050505091929192908035600019169060200190929190505050611260565b604051808215151515815260200191505060405180910390f35b34801561037c57600080fd5b506103d7600480360381019080803590602001908201803590602001908080601f01602080910402602001604051908101604052809392919081815260200183838082843782019150505050505091929192905050506112b8565b6040518080602001828103825283818151815260200191508051906020019060200280838360005b8381101561041a5780820151818401526020810190506103ff565b505050509050019250505060405180910390f35b34801561043a57600080fd5b506104436113b4565b6040518082815260200191505060405180910390f35b34801561046557600080fd5b506104c0600480360381019080803590602001908201803590602001908080601f01602080910402602001604051908101604052809392919081815260200183838082843782019150505050505091929192905050506113ba565b6040518080602001828103825283818151815260200191508051906020019080838360005b838110156105005780820151818401526020810190506104e5565b50505050905090810190601f16801561052d5780820380516001836020036101000a031916815260200191505b509250505060405180910390f35b34801561054757600080fd5b506105a2600480360381019080803590602001908201803590602001908080601f01602080910402602001604051908101604052809392919081815260200183838082843782019150505050505091929192905050506114ca565b6040518080602001828103825283818151815260200191508051906020019080838360005b838110156105e25780820151818401526020810190506105c7565b50505050905090810190601f16801561060f5780820380516001836020036101000a031916815260200191505b509250505060405180910390f35b34801561062957600080fd5b50610684600480360381019080803590602001908201803590602001908080601f01602080910402602001604051908101604052809392919081815260200183838082843782019150505050505091929192905050506115da565b604051808273ffffffffffffffffffffffffffffffffffffffff1673ffffffffffffffffffffffffffffffffffffffff16815260200191505060405180910390f35b3480156106d257600080fd5b5061072d600480360381019080803590602001908201803590602001908080601f0160208091040260200160405190810160405280939291908181526020018383808284378201915050505050509192919290505050611672565b6040518080602001828103825283818151815260200191508051906020019080838360005b8381101561076d578082015181840152602081019050610752565b50505050905090810190601f16801561079a5780820380516001836020036101000a031916815260200191505b509250505060405180910390f35b3480156107b457600080fd5b506107e9600480360381019080803573ffffffffffffffffffffffffffffffffffffffff169060200190929190505050611782565b6040518082815260200191505060405180910390f35b34801561080b57600080fd5b506108146117cd565b6040518082815260200191505060405180910390f35b34801561083657600080fd5b50610891600480360381019080803590602001908201803590602001908080601f01602080910402602001604051908101604052809392919081815260200183838082843782019150505050505091929192905050506117d3565b604051808215151515815260200191505060405180910390f35b3480156108b757600080fd5b50610912600480360381019080803590602001908201803590602001908080601f0160208091040260200160405190810160405280939291908181526020018383808284378201915050505050509192919290505050611807565b6040518080602001828103825283818151815260200191508051906020019080838360005b83811015610952578082015181840152602081019050610937565b50505050905090810190601f16801561097f5780820380516001836020036101000a031916815260200191505b509250505060405180910390f35b34801561099957600080fd5b506109f4600480360381019080803590602001908201803590602001908080601f0160208091040260200160405190810160405280939291908181526020018383808284378201915050505050509192919290505050611917565b6040518080602001828103825283818151815260200191508051906020019080838360005b83811015610a34578082015181840152602081019050610a19565b50505050905090810190601f168015610a615780820380516001836020036101000a031916815260200191505b509250505060405180910390f35b348015610a7b57600080fd5b50610ab0600480360381019080803573ffffffffffffffffffffffffffffffffffffffff169060200190929190505050611a27565b6040518080602001838152602001828103825284818151815260200191508051906020019080838360005b83811015610af6578082015181840152602081019050610adb565b50505050905090810190601f168015610b235780820380516001836020036101000a031916815260200191505b50935050505060405180910390f35b348015610b3e57600080fd5b50610b99600480360381019080803590602001908201803590602001908080601f0160208091040260200160405190810160405280939291908181526020018383808284378201915050505050509192919290505050611ae3565b604051808215151515815260200191505060405180910390f35b348015610bbf57600080fd5b50610c1a600480360381019080803590602001908201803590602001908080601f0160208091040260200160405190810160405280939291908181526020018383808284378201915050505050509192919290505050611b0f565b604051808273ffffffffffffffffffffffffffffffffffffffff1673ffffffffffffffffffffffffffffffffffffffff16815260200191505060405180910390f35b348015610c6857600080fd5b50610c71611ba7565b6040518082815260200191505060405180910390f35b348015610c9357600080fd5b50610cee600480360381019080803590602001908201803590602001908080601f0160208091040260200160405190810160405280939291908181526020018383808284378201915050505050509192919290505050611bad565b6040518080602001828103825283818151815260200191508051906020019080838360005b83811015610d2e578082015181840152602081019050610d13565b50505050905090810190601f168015610d5b5780820380516001836020036101000a031916815260200191505b509250505060405180910390f35b348015610d7557600080fd5b50610dd0600480360381019080803590602001908201803590602001908080601f0160208091040260200160405190810160405280939291908181526020018383808284378201915050505050509192919290505050611cbd565b6040518080602001828103825283818151815260200191508051906020019080838360005b83811015610e10578082015181840152602081019050610df5565b50505050905090810190601f168015610e3d5780820380516001836020036101000a031916815260200191505b509250505060405180910390f35b348015610e5757600080fd5b50610eb2600480360381019080803590602001908201803590602001908080601f0160208091040260200160405190810160405280939291908181526020018383808284378201915050505050509192919290505050611dcd565b604051808215151515815260200191505060405180910390f35b348015610ed857600080fd5b50610f33600480360381019080803590602001908201803590602001908080601f0160208091040260200160405190810160405280939291908181526020018383808284378201915050505050509192919290505050611e39565b60405180826000191660001916815260200191505060405180910390f35b348015610f5d57600080fd5b50610fb8600480360381019080803590602001908201803590602001908080601f0160208091040260200160405190810160405280939291908181526020018383808284378201915050505050509192919290505050611eb1565b604051808215151515815260200191505060405180910390f35b348015610fde57600080fd5b50611039600480360381019080803590602001908201803590602001908080601f0160208091040260200160405190810160405280939291908181526020018383808284378201915050505050509192919290505050611ec7565b6040518080602001828103825283818151815260200191508051906020019080838360005b8381101561107957808201518184015260208101905061105e565b50505050905090810190601f1680156110a65780820380516001836020036101000a031916815260200191505b509250505060405180910390f35b3480156110c057600080fd5b506110f5600480360381019080803573ffffffffffffffffffffffffffffffffffffffff169060200190929190505050611fd7565b6040518080602001828103825283818151815260200191508051906020019080838360005b8381101561113557808201518184015260208101905061111a565b50505050905090810190601f1680156111625780820380516001836020036101000a031916815260200191505b509250505060405180910390f35b34801561117c57600080fd5b506111d7600480360381019080803590602001908201803590602001908080601f01602080910402602001604051908101604052809392919081815260200183838082843782019150505050505091929192905050506120ba565b604051808215151515815260200191505060405180910390f35b60006111fc83611b0f565b73ffffffffffffffffffffffffffffffffffffffff163373ffffffffffffffffffffffffffffffffffffffff1614151561123557600080fd5b61123f83836120d0565b506001905092915050565b60008061125683611fd7565b5114159050919050565b600061126b85611eb1565b15151561127757600080fd5b6112818585612189565b5061128c8584612218565b5061129785336122a7565b506112a28583612360565b506112ab6123e3565b5060019050949350505050565b60606002826040518082805190602001908083835b6020831015156112f257805182526020820191506020810190506020830392506112cd565b6001836020036101000a03801982511681845116808217855250505050505090500191505090815260200160405180910390206006018054806020026020016040519081016040528092919081815260200182805480156113a857602002820191906000526020600020905b8160009054906101000a900473ffffffffffffffffffffffffffffffffffffffff1673ffffffffffffffffffffffffffffffffffffffff168152602001906001019080831161135e575b50505050509050919050565b60055481565b60606002826040518082805190602001908083835b6020831015156113f457805182526020820191506020810190506020830392506113cf565b6001836020036101000a03801982511681845116808217855250505050505090500191505090815260200160405180910390206005018054600181600116156101000203166002900480601f0160208091040260200160405190810160405280929190818152602001828054600181600116156101000203166002900480156114be5780601f10611493576101008083540402835291602001916114be565b820191906000526020600020905b8154815290600101906020018083116114a157829003601f168201915b50505050509050919050565b60606002826040518082805190602001908083835b60208310151561150457805182526020820191506020810190506020830392506114df565b6001836020036101000a03801982511681845116808217855250505050505090500191505090815260200160405180910390206000018054600181600116156101000203166002900480601f0160208091040260200160405190810160405280929190818152602001828054600181600116156101000203166002900480156115ce5780601f106115a3576101008083540402835291602001916115ce565b820191906000526020600020905b8154815290600101906020018083116115b157829003601f168201915b50505050509050919050565b60006001826040518082805190602001908083835b60208310151561161457805182526020820191506020810190506020830392506115ef565b6001836020036101000a038019825116818451168082178552505050505050905001915050908152602001604051809103902060030160009054906101000a900473ffffffffffffffffffffffffffffffffffffffff169050919050565b60606001826040518082805190602001908083835b6020831015156116ac5780518252602082019150602081019050602083039250611687565b6001836020036101000a03801982511681845116808217855250505050505090500191505090815260200160405180910390206000018054600181600116156101000203166002900480601f0160208091040260200160405190810160405280929190818152602001828054600181600116156101000203166002900480156117765780601f1061174b57610100808354040283529160200191611776565b820191906000526020600020905b81548152906001019060200180831161175957829003601f168201915b50505050509050919050565b60008060008373ffffffffffffffffffffffffffffffffffffffff1673ffffffffffffffffffffffffffffffffffffffff168152602001908152602001600020600201549050919050565b60045481565b60006117de3361124a565b1515156117ea57600080fd5b6117f43383612434565b506117fd612496565b5060019050919050565b60606001826040518082805190602001908083835b602083101515611841578051825260208201915060208101905060208303925061181c565b6001836020036101000a03801982511681845116808217855250505050505090500191505090815260200160405180910390206001018054600181600116156101000203166002900480601f01602080910402602001604051908101604052809291908181526020018280546001816001161561010002031660029004801561190b5780601f106118e05761010080835404028352916020019161190b565b820191906000526020600020905b8154815290600101906020018083116118ee57829003601f168201915b50505050509050919050565b60606002826040518082805190602001908083835b602083101515611951578051825260208201915060208101905060208303925061192c565b6001836020036101000a03801982511681845116808217855250505050505090500191505090815260200160405180910390206003018054600181600116156101000203166002900480601f016020809104026020016040519081016040528092919081815260200182805460018160011615610100020316600290048015611a1b5780601f106119f057610100808354040283529160200191611a1b565b820191906000526020600020905b8154815290600101906020018083116119fe57829003601f168201915b50505050509050919050565b6000602052806000526040600020600091509050806000018054600181600116156101000203166002900480601f016020809104026020016040519081016040528092919081815260200182805460018160011615610100020316600290048015611ad35780601f10611aa857610100808354040283529160200191611ad3565b820191906000526020600020905b815481529060010190602001808311611ab657829003601f168201915b5050505050908060020154905082565b6000611aef33836124e7565b151515611afb57600080fd5b611b0533836125a9565b5060019050919050565b60006001826040518082805190602001908083835b602083101515611b495780518252602082019150602081019050602083039250611b24565b6001836020036101000a038019825116818451168082178552505050505050905001915050908152602001604051809103902060020160009054906101000a900473ffffffffffffffffffffffffffffffffffffffff169050919050565b60035481565b60606002826040518082805190602001908083835b602083101515611be75780518252602082019150602081019050602083039250611bc2565b6001836020036101000a03801982511681845116808217855250505050505090500191505090815260200160405180910390206004018054600181600116156101000203166002900480601f016020809104026020016040519081016040528092919081815260200182805460018160011615610100020316600290048015611cb15780601f10611c8657610100808354040283529160200191611cb1565b820191906000526020600020905b815481529060010190602001808311611c9457829003601f168201915b50505050509050919050565b60606002826040518082805190602001908083835b602083101515611cf75780518252602082019150602081019050602083039250611cd2565b6001836020036101000a03801982511681845116808217855250505050505090500191505090815260200160405180910390206001018054600181600116156101000203166002900480601f016020809104026020016040519081016040528092919081815260200182805460018160011615610100020316600290048015611dc15780601f10611d9657610100808354040283529160200191611dc1565b820191906000526020600020905b815481529060010190602001808311611da457829003601f168201915b50505050509050919050565b6000611dd8826115da565b73ffffffffffffffffffffffffffffffffffffffff163373ffffffffffffffffffffffffffffffffffffffff16141515611e1157600080fd5b611e2382611e1e846115da565b6122a7565b50611e2f8260006120d0565b5060019050919050565b60006001826040518082805190602001908083835b602083101515611e735780518252602082019150602081019050602083039250611e4e565b6001836020036101000a0380198251168184511680821785525050505050509050019150509081526020016040518091039020600601549050919050565b600080611ebd83611672565b5114159050919050565b60606002826040518082805190602001908083835b602083101515611f015780518252602082019150602081019050602083039250611edc565b6001836020036101000a03801982511681845116808217855250505050505090500191505090815260200160405180910390206002018054600181600116156101000203166002900480601f016020809104026020016040519081016040528092919081815260200182805460018160011615610100020316600290048015611fcb5780601f10611fa057610100808354040283529160200191611fcb565b820191906000526020600020905b815481529060010190602001808311611fae57829003601f168201915b50505050509050919050565b60606000808373ffffffffffffffffffffffffffffffffffffffff1673ffffffffffffffffffffffffffffffffffffffff1681526020019081526020016000206000018054600181600116156101000203166002900480601f0160208091040260200160405190810160405280929190818152602001828054600181600116156101000203166002900480156120ae5780601f10612083576101008083540402835291602001916120ae565b820191906000526020600020905b81548152906001019060200180831161209157829003601f168201915b50505050509050919050565b6000806120c6836114ca565b5114159050919050565b6000816001846040518082805190602001908083835b60208310151561210b57805182526020820191506020810190506020830392506120e6565b6001836020036101000a038019825116818451168082178552505050505050905001915050908152602001604051809103902060030160006101000a81548173ffffffffffffffffffffffffffffffffffffffff021916908373ffffffffffffffffffffffffffffffffffffffff1602179055506001905092915050565b6000816001846040518082805190602001908083835b6020831015156121c4578051825260208201915060208101905060208303925061219f565b6001836020036101000a0380198251168184511680821785525050505050509050019150509081526020016040518091039020600001908051906020019061220d929190612766565b506001905092915050565b6000816001846040518082805190602001908083835b602083101515612253578051825260208201915060208101905060208303925061222e565b6001836020036101000a0380198251168184511680821785525050505050509050019150509081526020016040518091039020600101908051906020019061229c929190612766565b506001905092915050565b6000816001846040518082805190602001908083835b6020831015156122e257805182526020820191506020810190506020830392506122bd565b6001836020036101000a038019825116818451168082178552505050505050905001915050908152602001604051809103902060020160006101000a81548173ffffffffffffffffffffffffffffffffffffffff021916908373ffffffffffffffffffffffffffffffffffffffff1602179055506001905092915050565b6000816001846040518082805190602001908083835b60208310151561239b5780518252602082019150602081019050602083039250612376565b6001836020036101000a038019825116818451168082178552505050505050905001915050908152602001604051809103902060060181600019169055506001905092915050565b60006123fb600160035461274a90919063ffffffff16565b6003819055507f1d62ea3c3f29421f9aa067d7868f31040506978e3f3adbaced42ea5ab44f07e360405160405180910390a16001905090565b6000816000808573ffffffffffffffffffffffffffffffffffffffff1673ffffffffffffffffffffffffffffffffffffffff168152602001908152602001600020600001908051906020019061248b929190612766565b506001905092915050565b60006124ae600160045461274a90919063ffffffff16565b6004819055507f4d9c4499a565ccdc1a7aa108bf18d1dee863d2239725b7eb0da54bb9bcea307460405160405180910390a16001905090565b60008060008473ffffffffffffffffffffffffffffffffffffffff1673ffffffffffffffffffffffffffffffffffffffff168152602001908152602001600020600101826040518082805190602001908083835b602083101515612560578051825260208201915060208101905060208303925061253b565b6001836020036101000a038019825116818451168082178552505050505050905001915050908152602001604051809103902060009054906101000a900460ff16905092915050565b600060016000808573ffffffffffffffffffffffffffffffffffffffff1673ffffffffffffffffffffffffffffffffffffffff168152602001908152602001600020600101836040518082805190602001908083835b60208310151561262457805182526020820191506020810190506020830392506125ff565b6001836020036101000a038019825116818451168082178552505050505050905001915050908152602001604051809103902060006101000a81548160ff0219169083151502179055506001826040518082805190602001908083835b6020831015156126a65780518252602082019150602081019050602083039250612681565b6001836020036101000a03801982511681845116808217855250505050505090500191505090815260200160405180910390206004018390806001815401808255809150509060018203906000526020600020016000909192909190916101000a81548173ffffffffffffffffffffffffffffffffffffffff021916908373ffffffffffffffffffffffffffffffffffffffff160217905550506001905092915050565b6000818301905082811015151561275d57fe5b80905092915050565b828054600181600116156101000203166002900490600052602060002090601f016020900481019282601f106127a757805160ff19168380011785556127d5565b828001600101855582156127d5579182015b828111156127d45782518255916020019190600101906127b9565b5b5090506127e291906127e6565b5090565b61280891905b808211156128045760008160009055506001016127ec565b5090565b905600a165627a7a7230582088ba2603e43d45c2792ccb76d583c9f2538c40a8100f4714a872d0ee370ed6760029",
  "source": "pragma solidity 0.4.24;\n\nimport \"openzeppelin-solidity/contracts/math/SafeMath.sol\";\n\ncontract SociethyData {\n\n    using SafeMath for uint;\n\n    struct Society {\n        string name;\n        string location;\n        address admin;\n        address newAdmin;\n        address[] members;\n        Event[] events;\n        bytes32 logoHash;\n    }\n\n    struct User {\n        string name;\n        mapping(string => bool) memberOf;\n        uint totalDonations;\n    }\n\n    struct Event {\n        string name;\n        string description;\n        string place;\n        string time;\n        string date;\n        string organiser;\n        address[] attendees;\n    }\n\n    mapping(address => User) public users;\n    mapping(string => Society) societies;\n    mapping(string => Event) events;\n\n    uint public numberOfSocieties;\n    uint public numberOfUsers;\n    uint public numberOfEvents;\n\n    event NewUserAdded();\n    event NewSocietyAdded();\n    event NewEventAdded();\n\n    /*\n    Setters\n    */\n\n    function societySetName(string _society, string _name) private returns (bool) {\n        societies[_society].name = _name;\n        return true;\n    }\n\n    function societySetLocation(string _society, string _location) private returns (bool) {\n        societies[_society].location = _location;\n        return true;\n    }\n\n    function societySetAdmin(string _society, address _admin) private returns (bool) {\n        societies[_society].admin = _admin;\n        return true;\n    }\n\n    function societySetNewAdmin(string _society, address _newAdmin) private returns (bool) {\n        societies[_society].newAdmin = _newAdmin;\n        return true;\n    }\n\n    function societySetLogoHash(string _society, bytes32 _logoHash) private returns (bool) {\n        societies[_society].logoHash = _logoHash;\n        return true;\n    }\n\n    function userSetName(address _user, string _name) private returns (bool) {\n        users[_user].name = _name;\n        return true;\n    }\n\n    function eventSetName(string _event, string _name) private returns (bool) {\n        events[_event].name = _name;\n        return true;\n    }\n\n    function eventSetDescription(string _event, string _description) private returns (bool) {\n        events[_event].description = _description;\n        return true;\n    }\n\n    function eventSetPlace(string _event, string _place) private returns (bool) {\n        events[_event].place = _place;\n        return true;\n    }\n\n    function eventSetTime(string _event, string _time) private returns (bool) {\n        events[_event].time = _time;\n        return true;\n    }\n\n    function eventSetDate(string _event, string _date) private returns (bool) {\n        events[_event].date = _date;\n        return true;\n    }\n\n    function eventSetOrganiser(string _event, string _organiser) private returns (bool) {\n        events[_event].organiser = _organiser;\n        return true;\n    }\n\n    /*\n    Getters\n    */\n\n    function societyGetName(string _society) public view returns (string) {\n        return societies[_society].name;\n    }\n\n    function societyGetLocation(string _society) public view returns (string) {\n        return societies[_society].location;\n    }\n\n    function societyGetAdmin(string _society) public view returns (address) {\n        return societies[_society].admin;\n    }\n\n    function societyGetNewAdmin(string _society) public view returns (address) {\n        return societies[_society].newAdmin;\n    }\n\n    function societyGetLogoHash(string _society) public view returns (bytes32) {\n        return societies[_society].logoHash;\n    }\n\n    function userGetName(address _user) public view returns (string) {\n        return users[_user].name;\n    }\n\n    function userGetTotalDonations(address _user) public view returns (uint) {\n        return users[_user].totalDonations;\n    }\n\n    function eventGetName(string _event) public view returns (string) {\n        return events[_event].name;\n    }\n\n    function eventGetDescription(string _event) public view returns (string) {\n        return events[_event].description;\n    }\n\n    function eventGetPlace(string _event) public view returns (string) {\n        return events[_event].place;\n    }\n\n    function eventGetTime(string _event) public view returns (string) {\n        return events[_event].time;\n    }\n\n    function eventGetDate(string _event) public view returns (string) {\n        return events[_event].date;\n    }\n\n    function eventGetOrganiser(string _event) public view returns (string) {\n        return events[_event].organiser;\n    }\n\n    function eventGetAttendees(string _event) public view returns (address[]) {\n        return events[_event].attendees;\n    }\n\n    /*\n    Society utilities\n    */\n\n    function societyExists(string _society) public view returns (bool) {\n        return bytes(societyGetName(_society)).length != 0;\n    }\n\n    function addNewSociety(string _society, string _name, string _location, bytes32 _logoHash) public returns (bool) {\n        require(!societyExists(_society));\n        societySetName(_society, _name);\n        societySetLocation(_society, _location);\n        societySetAdmin(_society, msg.sender);\n        societySetLogoHash(_society, _logoHash);\n        newSocietyAdded();\n        return true;\n    }\n\n    function proposeNewAdmin(string _society, address _newAdmin) public returns (bool) {\n        require(msg.sender == societyGetAdmin(_society));\n        societySetNewAdmin(_society, _newAdmin);\n        return true;\n    }\n\n    function acceptNewAdmin(string _society) public returns (bool) {\n        require(msg.sender == societyGetNewAdmin(_society));\n        societySetAdmin(_society, societyGetNewAdmin(_society));\n        societySetNewAdmin(_society, 0x0);\n        return true;\n    }\n\n    /*\n    User utilities\n    */\n\n    function userExists(address _user) public view returns (bool) {\n        return bytes(userGetName(_user)).length != 0;\n    }\n\n    function userMakeMemberOf(address _user, string _society) private returns (bool) {\n        users[_user].memberOf[_society] = true;\n        societies[_society].members.push(_user);\n        return true;\n    }\n\n    function userAddDonation(address _user, uint _donation) private returns (bool) {\n        users[_user].totalDonations = users[_user].totalDonations.add(_donation);\n        return true;\n    }\n\n    function userIsMemberOf(address _user, string _society) private view returns (bool) {\n        return users[_user].memberOf[_society];\n    }\n\n    function addNewUser(string _name) public returns (bool) {\n        require(!userExists(msg.sender));\n        userSetName(msg.sender, _name);\n        newUserAdded();\n        return true;\n    }\n\n    function makeMeMemberOf(string _society) public returns (bool) {\n        require(!userIsMemberOf(msg.sender, _society));\n        userMakeMemberOf(msg.sender, _society);\n        return true;\n    }\n\n    /*\n    Event utilities\n    */\n\n    function eventExists(string _event) public view returns (bool) {\n        return bytes(eventGetName(_event)).length != 0;\n    }\n\n    /*\n    Other utilities\n    */\n\n    function newSocietyAdded() private returns (bool) {\n        numberOfSocieties = numberOfSocieties.add(1);\n        emit NewSocietyAdded();\n        return true;\n    }\n\n    function newUserAdded() private returns (bool) {\n        numberOfUsers = numberOfUsers.add(1);\n        emit NewUserAdded();\n        return true;\n    }\n\n    function newEventAdded() private returns (bool) {\n        numberOfEvents = numberOfEvents.add(1);\n        emit NewEventAdded();\n        return true;\n    }\n\n}\n",
  "sourcePath": "/Users/jackleslie/Desktop/Consensys/ConsenSys-2018DP-Final-Project/contracts/SociethyData.sol",
  "compiler": {
    "name": "solc",
    "version": "0.4.24+commit.e67f0147.Emscripten.clang"
  },
  "schemaVersion": "2.0.1",
  "updatedAt": "2018-08-10T13:10:09.719Z"
}