{
  "contractName": "Society",
  "abi": [
    {
      "constant": true,
      "inputs": [],
      "name": "socialLink",
      "outputs": [
        {
          "name": "",
          "type": "string"
        }
      ],
      "payable": false,
      "stateMutability": "view",
      "type": "function"
    },
    {
      "constant": true,
      "inputs": [],
      "name": "name",
      "outputs": [
        {
          "name": "",
          "type": "string"
        }
      ],
      "payable": false,
      "stateMutability": "view",
      "type": "function"
    },
    {
      "constant": true,
      "inputs": [],
      "name": "location",
      "outputs": [
        {
          "name": "",
          "type": "string"
        }
      ],
      "payable": false,
      "stateMutability": "view",
      "type": "function"
    },
    {
      "constant": true,
      "inputs": [
        {
          "name": "",
          "type": "address"
        }
      ],
      "name": "isMember",
      "outputs": [
        {
          "name": "",
          "type": "bool"
        }
      ],
      "payable": false,
      "stateMutability": "view",
      "type": "function"
    },
    {
      "constant": true,
      "inputs": [],
      "name": "memberships",
      "outputs": [
        {
          "name": "",
          "type": "uint256"
        }
      ],
      "payable": false,
      "stateMutability": "view",
      "type": "function"
    },
    {
      "constant": true,
      "inputs": [],
      "name": "admin",
      "outputs": [
        {
          "name": "",
          "type": "address"
        }
      ],
      "payable": false,
      "stateMutability": "view",
      "type": "function"
    },
    {
      "inputs": [
        {
          "name": "_name",
          "type": "string"
        },
        {
          "name": "_location",
          "type": "string"
        },
        {
          "name": "_admin",
          "type": "address"
        },
        {
          "name": "_socialLink",
          "type": "string"
        }
      ],
      "payable": false,
      "stateMutability": "nonpayable",
      "type": "constructor"
    },
    {
      "payable": true,
      "stateMutability": "payable",
      "type": "fallback"
    },
    {
      "constant": false,
      "inputs": [
        {
          "name": "_name",
          "type": "string"
        }
      ],
      "name": "setName",
      "outputs": [
        {
          "name": "",
          "type": "bool"
        }
      ],
      "payable": false,
      "stateMutability": "nonpayable",
      "type": "function"
    },
    {
      "constant": false,
      "inputs": [
        {
          "name": "_location",
          "type": "string"
        }
      ],
      "name": "setLocation",
      "outputs": [
        {
          "name": "",
          "type": "bool"
        }
      ],
      "payable": false,
      "stateMutability": "nonpayable",
      "type": "function"
    },
    {
      "constant": false,
      "inputs": [
        {
          "name": "_socialLink",
          "type": "string"
        }
      ],
      "name": "setSocialLink",
      "outputs": [
        {
          "name": "",
          "type": "bool"
        }
      ],
      "payable": false,
      "stateMutability": "nonpayable",
      "type": "function"
    },
    {
      "constant": true,
      "inputs": [
        {
          "name": "_user",
          "type": "address"
        }
      ],
      "name": "userIsMember",
      "outputs": [
        {
          "name": "_isMember",
          "type": "bool"
        }
      ],
      "payable": false,
      "stateMutability": "view",
      "type": "function"
    },
    {
      "constant": false,
      "inputs": [
        {
          "name": "_user",
          "type": "address"
        }
      ],
      "name": "join",
      "outputs": [
        {
          "name": "",
          "type": "bool"
        }
      ],
      "payable": false,
      "stateMutability": "nonpayable",
      "type": "function"
    },
    {
      "constant": false,
      "inputs": [
        {
          "name": "_user",
          "type": "address"
        }
      ],
      "name": "leave",
      "outputs": [
        {
          "name": "",
          "type": "bool"
        }
      ],
      "payable": false,
      "stateMutability": "nonpayable",
      "type": "function"
    },
    {
      "constant": false,
      "inputs": [],
      "name": "withdraw",
      "outputs": [
        {
          "name": "",
          "type": "bool"
        }
      ],
      "payable": false,
      "stateMutability": "nonpayable",
      "type": "function"
    }
  ],
  "bytecode": "0x608060405234801561001057600080fd5b5060405162000f0838038062000f08833981018060405281019080805182019291906020018051820192919060200180519060200190929190805182019291905050508360009080519060200190610069929190610142565b508260019080519060200190610080929190610142565b5081600260006101000a81548173ffffffffffffffffffffffffffffffffffffffff021916908373ffffffffffffffffffffffffffffffffffffffff16021790555080600390805190602001906100d8929190610142565b5060016004819055506001600560008473ffffffffffffffffffffffffffffffffffffffff1673ffffffffffffffffffffffffffffffffffffffff16815260200190815260200160002060006101000a81548160ff021916908315150217905550505050506101e7565b828054600181600116156101000203166002900490600052602060002090601f016020900481019282601f1061018357805160ff19168380011785556101b1565b828001600101855582156101b1579182015b828111156101b0578251825591602001919060010190610195565b5b5090506101be91906101c2565b5090565b6101e491905b808211156101e05760008160009055506001016101c8565b5090565b90565b610d1180620001f76000396000f3006080604052600436106100c5576000357c0100000000000000000000000000000000000000000000000000000000900463ffffffff168063039cf786146100c757806306fdde03146101575780632569fb10146101e757806328ffe6c81461023a57806337a40cd0146102955780633ccfd60b146102f0578063516f279e1461031f578063827bfbdf146103af578063a230c52414610402578063b88fe6a31461045d578063bedf77a614610488578063c47f0027146104e3578063f851a44014610536575b005b3480156100d357600080fd5b506100dc61058d565b6040518080602001828103825283818151815260200191508051906020019080838360005b8381101561011c578082015181840152602081019050610101565b50505050905090810190601f1680156101495780820380516001836020036101000a031916815260200191505b509250505060405180910390f35b34801561016357600080fd5b5061016c61062b565b6040518080602001828103825283818151815260200191508051906020019080838360005b838110156101ac578082015181840152602081019050610191565b50505050905090810190601f1680156101d95780820380516001836020036101000a031916815260200191505b509250505060405180910390f35b3480156101f357600080fd5b506102206004803603810190808035906020019082018035906020019190919293919293905050506106c9565b604051808215151515815260200191505060405180910390f35b34801561024657600080fd5b5061027b600480360381019080803573ffffffffffffffffffffffffffffffffffffffff169060200190929190505050610743565b604051808215151515815260200191505060405180910390f35b3480156102a157600080fd5b506102d6600480360381019080803573ffffffffffffffffffffffffffffffffffffffff16906020019092919050505061081b565b604051808215151515815260200191505060405180910390f35b3480156102fc57600080fd5b50610305610871565b604051808215151515815260200191505060405180910390f35b34801561032b57600080fd5b50610334610956565b6040518080602001828103825283818151815260200191508051906020019080838360005b83811015610374578082015181840152602081019050610359565b50505050905090810190601f1680156103a15780820380516001836020036101000a031916815260200191505b509250505060405180910390f35b3480156103bb57600080fd5b506103e86004803603810190808035906020019082018035906020019190919293919293905050506109f4565b604051808215151515815260200191505060405180910390f35b34801561040e57600080fd5b50610443600480360381019080803573ffffffffffffffffffffffffffffffffffffffff169060200190929190505050610a6e565b604051808215151515815260200191505060405180910390f35b34801561046957600080fd5b50610472610a8e565b6040518082815260200191505060405180910390f35b34801561049457600080fd5b506104c9600480360381019080803573ffffffffffffffffffffffffffffffffffffffff169060200190929190505050610a94565b604051808215151515815260200191505060405180910390f35b3480156104ef57600080fd5b5061051c600480360381019080803590602001908201803590602001919091929391929390505050610b6b565b604051808215151515815260200191505060405180910390f35b34801561054257600080fd5b5061054b610be5565b604051808273ffffffffffffffffffffffffffffffffffffffff1673ffffffffffffffffffffffffffffffffffffffff16815260200191505060405180910390f35b60038054600181600116156101000203166002900480601f0160208091040260200160405190810160405280929190818152602001828054600181600116156101000203166002900480156106235780601f106105f857610100808354040283529160200191610623565b820191906000526020600020905b81548152906001019060200180831161060657829003601f168201915b505050505081565b60008054600181600116156101000203166002900480601f0160208091040260200160405190810160405280929190818152602001828054600181600116156101000203166002900480156106c15780601f10610696576101008083540402835291602001916106c1565b820191906000526020600020905b8154815290600101906020018083116106a457829003601f168201915b505050505081565b6000600260009054906101000a900473ffffffffffffffffffffffffffffffffffffffff1673ffffffffffffffffffffffffffffffffffffffff163373ffffffffffffffffffffffffffffffffffffffff1614151561072757600080fd5b828260039190610738929190610c40565b506001905092915050565b6000600560008373ffffffffffffffffffffffffffffffffffffffff1673ffffffffffffffffffffffffffffffffffffffff16815260200190815260200160002060009054906101000a900460ff1615151561079e57600080fd5b6107b46001600454610c0b90919063ffffffff16565b6004819055506001600560008473ffffffffffffffffffffffffffffffffffffffff1673ffffffffffffffffffffffffffffffffffffffff16815260200190815260200160002060006101000a81548160ff02191690831515021790555060019050919050565b6000600560008373ffffffffffffffffffffffffffffffffffffffff1673ffffffffffffffffffffffffffffffffffffffff16815260200190815260200160002060009054906101000a900460ff169050919050565b6000600260009054906101000a900473ffffffffffffffffffffffffffffffffffffffff1673ffffffffffffffffffffffffffffffffffffffff163373ffffffffffffffffffffffffffffffffffffffff161415156108cf57600080fd5b600260009054906101000a900473ffffffffffffffffffffffffffffffffffffffff1673ffffffffffffffffffffffffffffffffffffffff166108fc3073ffffffffffffffffffffffffffffffffffffffff16319081150290604051600060405180830381858888f1935050505015801561094e573d6000803e3d6000fd5b506001905090565b60018054600181600116156101000203166002900480601f0160208091040260200160405190810160405280929190818152602001828054600181600116156101000203166002900480156109ec5780601f106109c1576101008083540402835291602001916109ec565b820191906000526020600020905b8154815290600101906020018083116109cf57829003601f168201915b505050505081565b6000600260009054906101000a900473ffffffffffffffffffffffffffffffffffffffff1673ffffffffffffffffffffffffffffffffffffffff163373ffffffffffffffffffffffffffffffffffffffff16141515610a5257600080fd5b828260019190610a63929190610c40565b506001905092915050565b60056020528060005260406000206000915054906101000a900460ff1681565b60045481565b6000600560008373ffffffffffffffffffffffffffffffffffffffff1673ffffffffffffffffffffffffffffffffffffffff16815260200190815260200160002060009054906101000a900460ff161515610aee57600080fd5b610b046001600454610c2790919063ffffffff16565b6004819055506000600560008473ffffffffffffffffffffffffffffffffffffffff1673ffffffffffffffffffffffffffffffffffffffff16815260200190815260200160002060006101000a81548160ff02191690831515021790555060019050919050565b6000600260009054906101000a900473ffffffffffffffffffffffffffffffffffffffff1673ffffffffffffffffffffffffffffffffffffffff163373ffffffffffffffffffffffffffffffffffffffff16141515610bc957600080fd5b828260009190610bda929190610c40565b506001905092915050565b600260009054906101000a900473ffffffffffffffffffffffffffffffffffffffff1681565b60008183019050828110151515610c1e57fe5b80905092915050565b6000828211151515610c3557fe5b818303905092915050565b828054600181600116156101000203166002900490600052602060002090601f016020900481019282601f10610c8157803560ff1916838001178555610caf565b82800160010185558215610caf579182015b82811115610cae578235825591602001919060010190610c93565b5b509050610cbc9190610cc0565b5090565b610ce291905b80821115610cde576000816000905550600101610cc6565b5090565b905600a165627a7a723058200b09c11b7796ce9a42c3d74ea4747369a66a4414573b5c2d798825bbbc3e1abf0029",
  "source": "pragma solidity 0.4.24;\n\nimport \"openzeppelin-solidity/contracts/math/SafeMath.sol\";\n\n/** @title Society contract */\ncontract Society {\n\n    using SafeMath for uint;\n\n    string public name;\n    string public location;\n    address public admin;\n    string public socialLink;\n    uint public memberships;\n    mapping(address => bool) public isMember;\n\n    /**\n     * @dev Constructor\n     * @param _name String for new society name\n     * @param _location String for new society location\n     * @param _admin Address for new society admin\n     * @param _socialLink String for new society social link\n     */\n    constructor(string _name, string _location, address _admin, string _socialLink) public {\n        name = _name;\n        location = _location;\n        admin = _admin;\n        socialLink = _socialLink;\n        memberships = 1;\n        isMember[_admin] = true;\n    }\n\n    modifier onlyAdmin() {\n        require(msg.sender == admin);\n        _;\n    }\n\n    /*\n    Setters\n    */\n\n    /**\n     * @dev Setter for society name\n     * @param _name String for updated society name\n     * @return {bool} Success\n     */\n    function setName(string _name) external onlyAdmin returns (bool) {\n        name = _name;\n        return true;\n    }\n\n    /**\n     * @dev Setter for society location\n     * @param _location String for updated society location\n     * @return {bool} Success\n     */\n    function setLocation(string _location) external onlyAdmin returns (bool) {\n        location = _location;\n        return true;\n    }\n\n    /**\n     * @dev Setter for society social link\n     * @param _socialLink String for updated society social link\n     * @return {bool} Success\n     */\n    function setSocialLink(string _socialLink) external onlyAdmin returns (bool) {\n        socialLink = _socialLink;\n        return true;\n    }\n\n    /*\n    Utilities\n    */\n\n    /**\n     * @dev Getter for user membership status\n     * @param _user Address to identify user\n     * @return _isMember Identified user's membership status\n     */\n    function userIsMember(address _user) external view returns (bool _isMember) {\n        _isMember = isMember[_user];\n    }\n\n    /**\n     * @dev Allows user to join society if they haven't already\n     * @param _user Address to identify user\n     * @return {bool} Success\n     */\n    function join(address _user) external returns (bool) {\n        require(!isMember[_user]);\n        memberships = memberships.add(1);\n        isMember[_user] = true;\n        return true;\n    }\n\n    /**\n     * @dev Allows user to leave society if they are a member\n     * @param _user Address to identify user\n     * @return {bool} Success\n     */\n    function leave(address _user) external returns (bool) {\n        require(isMember[_user]);\n        memberships = memberships.sub(1);\n        isMember[_user] = false;\n        return true;\n    }\n\n    /**\n     * @dev Allows admin to withdraw donations\n     * @return {bool} Success\n     */\n    function withdraw() external onlyAdmin returns (bool) {\n        admin.transfer(address(this).balance);\n        return true;\n    }\n\n    /**\n     * @dev Allows contract to be paid\n     */\n    function () external payable {}\n\n}\n",
  "sourcePath": "/Users/jackleslie/Desktop/Consensys/ConsenSys-2018DP-Final-Project/contracts/Society.sol",
  "compiler": {
    "name": "solc",
    "version": "0.4.24+commit.e67f0147.Emscripten.clang"
  },
  "schemaVersion": "2.0.1",
  "updatedAt": "2018-08-12T19:52:55.906Z"
}