{
  "contractName": "Society",
  "abi": [
    {
      "constant": true,
      "inputs": [],
      "name": "socialLink",
      "outputs": [
        {
          "name": "",
          "type": "string"
        }
      ],
      "payable": false,
      "stateMutability": "view",
      "type": "function"
    },
    {
      "constant": true,
      "inputs": [],
      "name": "name",
      "outputs": [
        {
          "name": "",
          "type": "string"
        }
      ],
      "payable": false,
      "stateMutability": "view",
      "type": "function"
    },
    {
      "constant": true,
      "inputs": [],
      "name": "location",
      "outputs": [
        {
          "name": "",
          "type": "string"
        }
      ],
      "payable": false,
      "stateMutability": "view",
      "type": "function"
    },
    {
      "constant": true,
      "inputs": [
        {
          "name": "",
          "type": "address"
        }
      ],
      "name": "isMember",
      "outputs": [
        {
          "name": "",
          "type": "bool"
        }
      ],
      "payable": false,
      "stateMutability": "view",
      "type": "function"
    },
    {
      "constant": true,
      "inputs": [],
      "name": "memberships",
      "outputs": [
        {
          "name": "",
          "type": "uint256"
        }
      ],
      "payable": false,
      "stateMutability": "view",
      "type": "function"
    },
    {
      "constant": true,
      "inputs": [],
      "name": "admin",
      "outputs": [
        {
          "name": "",
          "type": "address"
        }
      ],
      "payable": false,
      "stateMutability": "view",
      "type": "function"
    },
    {
      "inputs": [
        {
          "name": "_name",
          "type": "string"
        },
        {
          "name": "_location",
          "type": "string"
        },
        {
          "name": "_admin",
          "type": "address"
        },
        {
          "name": "_socialLink",
          "type": "string"
        }
      ],
      "payable": false,
      "stateMutability": "nonpayable",
      "type": "constructor"
    },
    {
      "payable": true,
      "stateMutability": "payable",
      "type": "fallback"
    },
    {
      "constant": false,
      "inputs": [
        {
          "name": "_name",
          "type": "string"
        }
      ],
      "name": "setName",
      "outputs": [
        {
          "name": "",
          "type": "bool"
        }
      ],
      "payable": false,
      "stateMutability": "nonpayable",
      "type": "function"
    },
    {
      "constant": false,
      "inputs": [
        {
          "name": "_location",
          "type": "string"
        }
      ],
      "name": "setLocation",
      "outputs": [
        {
          "name": "",
          "type": "bool"
        }
      ],
      "payable": false,
      "stateMutability": "nonpayable",
      "type": "function"
    },
    {
      "constant": false,
      "inputs": [
        {
          "name": "_socialLink",
          "type": "string"
        }
      ],
      "name": "setSocialLink",
      "outputs": [
        {
          "name": "",
          "type": "bool"
        }
      ],
      "payable": false,
      "stateMutability": "nonpayable",
      "type": "function"
    },
    {
      "constant": true,
      "inputs": [
        {
          "name": "_user",
          "type": "address"
        }
      ],
      "name": "userIsMember",
      "outputs": [
        {
          "name": "_isMember",
          "type": "bool"
        }
      ],
      "payable": false,
      "stateMutability": "view",
      "type": "function"
    },
    {
      "constant": false,
      "inputs": [
        {
          "name": "_user",
          "type": "address"
        }
      ],
      "name": "join",
      "outputs": [
        {
          "name": "",
          "type": "bool"
        }
      ],
      "payable": false,
      "stateMutability": "nonpayable",
      "type": "function"
    },
    {
      "constant": false,
      "inputs": [
        {
          "name": "_user",
          "type": "address"
        }
      ],
      "name": "leave",
      "outputs": [
        {
          "name": "",
          "type": "bool"
        }
      ],
      "payable": false,
      "stateMutability": "nonpayable",
      "type": "function"
    }
  ],
  "bytecode": "0x608060405234801561001057600080fd5b50604051610de6380380610de6833981018060405281019080805182019291906020018051820192919060200180519060200190929190805182019291905050508360009080519060200190610067929190610140565b50826001908051906020019061007e929190610140565b5081600260006101000a81548173ffffffffffffffffffffffffffffffffffffffff021916908373ffffffffffffffffffffffffffffffffffffffff16021790555080600390805190602001906100d6929190610140565b5060016004819055506001600560008473ffffffffffffffffffffffffffffffffffffffff1673ffffffffffffffffffffffffffffffffffffffff16815260200190815260200160002060006101000a81548160ff021916908315150217905550505050506101e5565b828054600181600116156101000203166002900490600052602060002090601f016020900481019282601f1061018157805160ff19168380011785556101af565b828001600101855582156101af579182015b828111156101ae578251825591602001919060010190610193565b5b5090506101bc91906101c0565b5090565b6101e291905b808211156101de5760008160009055506001016101c6565b5090565b90565b610bf2806101f46000396000f3006080604052600436106100ba576000357c0100000000000000000000000000000000000000000000000000000000900463ffffffff168063039cf786146100bc57806306fdde031461014c5780632569fb10146101dc57806328ffe6c81461022f57806337a40cd01461028a578063516f279e146102e5578063827bfbdf14610375578063a230c524146103c8578063b88fe6a314610423578063bedf77a61461044e578063c47f0027146104a9578063f851a440146104fc575b005b3480156100c857600080fd5b506100d1610553565b6040518080602001828103825283818151815260200191508051906020019080838360005b838110156101115780820151818401526020810190506100f6565b50505050905090810190601f16801561013e5780820380516001836020036101000a031916815260200191505b509250505060405180910390f35b34801561015857600080fd5b506101616105f1565b6040518080602001828103825283818151815260200191508051906020019080838360005b838110156101a1578082015181840152602081019050610186565b50505050905090810190601f1680156101ce5780820380516001836020036101000a031916815260200191505b509250505060405180910390f35b3480156101e857600080fd5b5061021560048036038101908080359060200190820180359060200191909192939192939050505061068f565b604051808215151515815260200191505060405180910390f35b34801561023b57600080fd5b50610270600480360381019080803573ffffffffffffffffffffffffffffffffffffffff169060200190929190505050610709565b604051808215151515815260200191505060405180910390f35b34801561029657600080fd5b506102cb600480360381019080803573ffffffffffffffffffffffffffffffffffffffff1690602001909291905050506107e1565b604051808215151515815260200191505060405180910390f35b3480156102f157600080fd5b506102fa610837565b6040518080602001828103825283818151815260200191508051906020019080838360005b8381101561033a57808201518184015260208101905061031f565b50505050905090810190601f1680156103675780820380516001836020036101000a031916815260200191505b509250505060405180910390f35b34801561038157600080fd5b506103ae6004803603810190808035906020019082018035906020019190919293919293905050506108d5565b604051808215151515815260200191505060405180910390f35b3480156103d457600080fd5b50610409600480360381019080803573ffffffffffffffffffffffffffffffffffffffff16906020019092919050505061094f565b604051808215151515815260200191505060405180910390f35b34801561042f57600080fd5b5061043861096f565b6040518082815260200191505060405180910390f35b34801561045a57600080fd5b5061048f600480360381019080803573ffffffffffffffffffffffffffffffffffffffff169060200190929190505050610975565b604051808215151515815260200191505060405180910390f35b3480156104b557600080fd5b506104e2600480360381019080803590602001908201803590602001919091929391929390505050610a4c565b604051808215151515815260200191505060405180910390f35b34801561050857600080fd5b50610511610ac6565b604051808273ffffffffffffffffffffffffffffffffffffffff1673ffffffffffffffffffffffffffffffffffffffff16815260200191505060405180910390f35b60038054600181600116156101000203166002900480601f0160208091040260200160405190810160405280929190818152602001828054600181600116156101000203166002900480156105e95780601f106105be576101008083540402835291602001916105e9565b820191906000526020600020905b8154815290600101906020018083116105cc57829003601f168201915b505050505081565b60008054600181600116156101000203166002900480601f0160208091040260200160405190810160405280929190818152602001828054600181600116156101000203166002900480156106875780601f1061065c57610100808354040283529160200191610687565b820191906000526020600020905b81548152906001019060200180831161066a57829003601f168201915b505050505081565b6000600260009054906101000a900473ffffffffffffffffffffffffffffffffffffffff1673ffffffffffffffffffffffffffffffffffffffff163373ffffffffffffffffffffffffffffffffffffffff161415156106ed57600080fd5b8282600391906106fe929190610b21565b506001905092915050565b6000600560003373ffffffffffffffffffffffffffffffffffffffff1673ffffffffffffffffffffffffffffffffffffffff16815260200190815260200160002060009054906101000a900460ff1615151561076457600080fd5b61077a6001600454610aec90919063ffffffff16565b6004819055506001600560008473ffffffffffffffffffffffffffffffffffffffff1673ffffffffffffffffffffffffffffffffffffffff16815260200190815260200160002060006101000a81548160ff02191690831515021790555060019050919050565b6000600560008373ffffffffffffffffffffffffffffffffffffffff1673ffffffffffffffffffffffffffffffffffffffff16815260200190815260200160002060009054906101000a900460ff169050919050565b60018054600181600116156101000203166002900480601f0160208091040260200160405190810160405280929190818152602001828054600181600116156101000203166002900480156108cd5780601f106108a2576101008083540402835291602001916108cd565b820191906000526020600020905b8154815290600101906020018083116108b057829003601f168201915b505050505081565b6000600260009054906101000a900473ffffffffffffffffffffffffffffffffffffffff1673ffffffffffffffffffffffffffffffffffffffff163373ffffffffffffffffffffffffffffffffffffffff1614151561093357600080fd5b828260019190610944929190610b21565b506001905092915050565b60056020528060005260406000206000915054906101000a900460ff1681565b60045481565b6000600560003373ffffffffffffffffffffffffffffffffffffffff1673ffffffffffffffffffffffffffffffffffffffff16815260200190815260200160002060009054906101000a900460ff1615156109cf57600080fd5b6109e56001600454610b0890919063ffffffff16565b6004819055506000600560008473ffffffffffffffffffffffffffffffffffffffff1673ffffffffffffffffffffffffffffffffffffffff16815260200190815260200160002060006101000a81548160ff02191690831515021790555060019050919050565b6000600260009054906101000a900473ffffffffffffffffffffffffffffffffffffffff1673ffffffffffffffffffffffffffffffffffffffff163373ffffffffffffffffffffffffffffffffffffffff16141515610aaa57600080fd5b828260009190610abb929190610b21565b506001905092915050565b600260009054906101000a900473ffffffffffffffffffffffffffffffffffffffff1681565b60008183019050828110151515610aff57fe5b80905092915050565b6000828211151515610b1657fe5b818303905092915050565b828054600181600116156101000203166002900490600052602060002090601f016020900481019282601f10610b6257803560ff1916838001178555610b90565b82800160010185558215610b90579182015b82811115610b8f578235825591602001919060010190610b74565b5b509050610b9d9190610ba1565b5090565b610bc391905b80821115610bbf576000816000905550600101610ba7565b5090565b905600a165627a7a72305820542c886310db110cb35dda3af31679f1968465ad23b6b69edebf30f2d3fdf5ce0029",
  "source": "pragma solidity 0.4.24;\n\nimport \"openzeppelin-solidity/contracts/math/SafeMath.sol\";\n\n/** @title Society contract */\ncontract Society {\n\n    using SafeMath for uint;\n\n    string public name;\n    string public location;\n    address public admin;\n    string public socialLink;\n    uint public memberships;\n    mapping(address => bool) public isMember;\n\n    /**\n     * @dev Constructor\n     * @param _name String for new society name\n     * @param _location String for new society location\n     * @param _admin Address for new society admin\n     * @param _socialLink String for new society social link\n     */\n    constructor(string _name, string _location, address _admin, string _socialLink) public {\n        name = _name;\n        location = _location;\n        admin = _admin;\n        socialLink = _socialLink;\n        memberships = 1;\n        isMember[_admin] = true;\n    }\n\n    modifier onlyAdmin() {\n        require(msg.sender == admin);\n        _;\n    }\n\n    modifier onlyMembers() {\n        require(isMember[msg.sender]);\n        _;\n    }\n\n    modifier onlyNonMembers() {\n        require(!isMember[msg.sender]);\n        _;\n    }\n\n    /*\n    Setters\n    */\n\n    /**\n     * @dev Setter for society name\n     * @param _name String for updated society name\n     * @return {bool} Success\n     */\n    function setName(string _name) external onlyAdmin returns (bool) {\n        name = _name;\n        return true;\n    }\n\n    /**\n     * @dev Setter for society location\n     * @param _location String for updated society location\n     * @return {bool} Success\n     */\n    function setLocation(string _location) external onlyAdmin returns (bool) {\n        location = _location;\n        return true;\n    }\n\n    /**\n     * @dev Setter for society social link\n     * @param _socialLink String for updated society social link\n     * @return {bool} Success\n     */\n    function setSocialLink(string _socialLink) external onlyAdmin returns (bool) {\n        socialLink = _socialLink;\n        return true;\n    }\n\n    /*\n    Utilities\n    */\n\n    /**\n     * @dev Getter for user membership status\n     * @param _user Address to identify user\n     * @return _isMember Identified user's membership status\n     */\n    function userIsMember(address _user) external view returns (bool _isMember) {\n        _isMember = isMember[_user];\n    }\n\n    /**\n     * @dev Allows user to join society if they haven't already\n     * @param _user Address to identify user\n     * @return {bool} Success\n     */\n    function join(address _user) external onlyNonMembers returns (bool) {\n        memberships = memberships.add(1);\n        isMember[_user] = true;\n        return true;\n    }\n\n    /**\n     * @dev Allows user to leave society if they are a member\n     * @param _user Address to identify user\n     * @return {bool} Success\n     */\n    function leave(address _user) external onlyMembers returns (bool) {\n        memberships = memberships.sub(1);\n        isMember[_user] = false;\n        return true;\n    }\n\n    /**\n     * @dev Allows contract to be paid\n     */\n    function () external payable {}\n\n}\n",
  "sourcePath": "/Users/jackleslie/Desktop/Consensys/ConsenSys-2018DP-Final-Project/contracts/Society.sol",
  "compiler": {
    "name": "solc",
    "version": "0.4.24+commit.e67f0147.Emscripten.clang"
  },
  "schemaVersion": "2.0.1",
  "updatedAt": "2018-08-12T14:08:44.546Z"
}